{
  "_format": "hh-sol-artifact-1",
  "contractName": "Bank",
  "sourceName": "src/backend/contracts/Bank.sol",
  "abi": [
    {
      "inputs": [],
      "stateMutability": "nonpayable",
      "type": "constructor"
    },
    {
      "anonymous": false,
      "inputs": [
        {
          "indexed": true,
          "internalType": "address",
          "name": "previousOwner",
          "type": "address"
        },
        {
          "indexed": true,
          "internalType": "address",
          "name": "newOwner",
          "type": "address"
        }
      ],
      "name": "OwnershipTransferred",
      "type": "event"
    },
    {
      "inputs": [
        {
          "internalType": "address",
          "name": "_playerAddress",
          "type": "address"
        },
        {
          "internalType": "uint256",
          "name": "_amount",
          "type": "uint256"
        }
      ],
      "name": "addPlayerBalance",
      "outputs": [],
      "stateMutability": "nonpayable",
      "type": "function"
    },
    {
      "inputs": [],
      "name": "buyTokens",
      "outputs": [],
      "stateMutability": "payable",
      "type": "function"
    },
    {
      "inputs": [],
      "name": "feePercent",
      "outputs": [
        {
          "internalType": "uint256",
          "name": "",
          "type": "uint256"
        }
      ],
      "stateMutability": "view",
      "type": "function"
    },
    {
      "inputs": [
        {
          "internalType": "address",
          "name": "_gameContract",
          "type": "address"
        }
      ],
      "name": "isGameContract",
      "outputs": [
        {
          "internalType": "bool",
          "name": "",
          "type": "bool"
        }
      ],
      "stateMutability": "view",
      "type": "function"
    },
    {
      "inputs": [],
      "name": "owner",
      "outputs": [
        {
          "internalType": "address",
          "name": "",
          "type": "address"
        }
      ],
      "stateMutability": "view",
      "type": "function"
    },
    {
      "inputs": [
        {
          "internalType": "address",
          "name": "_playerAddress",
          "type": "address"
        }
      ],
      "name": "playerBalance",
      "outputs": [
        {
          "internalType": "uint256",
          "name": "",
          "type": "uint256"
        }
      ],
      "stateMutability": "view",
      "type": "function"
    },
    {
      "inputs": [
        {
          "internalType": "address",
          "name": "",
          "type": "address"
        }
      ],
      "name": "players",
      "outputs": [
        {
          "internalType": "uint256",
          "name": "",
          "type": "uint256"
        }
      ],
      "stateMutability": "view",
      "type": "function"
    },
    {
      "inputs": [],
      "name": "rate",
      "outputs": [
        {
          "internalType": "uint256",
          "name": "",
          "type": "uint256"
        }
      ],
      "stateMutability": "view",
      "type": "function"
    },
    {
      "inputs": [],
      "name": "renounceOwnership",
      "outputs": [],
      "stateMutability": "nonpayable",
      "type": "function"
    },
    {
      "inputs": [
        {
          "internalType": "uint256",
          "name": "_amount",
          "type": "uint256"
        }
      ],
      "name": "sellTokens",
      "outputs": [],
      "stateMutability": "nonpayable",
      "type": "function"
    },
    {
      "inputs": [
        {
          "internalType": "address[]",
          "name": "_gameContracts",
          "type": "address[]"
        }
      ],
      "name": "setGameContracts",
      "outputs": [],
      "stateMutability": "nonpayable",
      "type": "function"
    },
    {
      "inputs": [
        {
          "internalType": "address",
          "name": "_playerAddress",
          "type": "address"
        },
        {
          "internalType": "uint256",
          "name": "_amount",
          "type": "uint256"
        }
      ],
      "name": "substractPlayerBalance",
      "outputs": [],
      "stateMutability": "nonpayable",
      "type": "function"
    },
    {
      "inputs": [
        {
          "internalType": "address",
          "name": "newOwner",
          "type": "address"
        }
      ],
      "name": "transferOwnership",
      "outputs": [],
      "stateMutability": "nonpayable",
      "type": "function"
    },
    {
      "inputs": [],
      "name": "withdraw",
      "outputs": [],
      "stateMutability": "nonpayable",
      "type": "function"
    }
  ],
  "bytecode": "0x60a0604052620186a0600255602360809081525034801561001f57600080fd5b5061003c61003161004860201b60201c565b61005060201b60201c565b60018081905550610114565b600033905090565b60008060009054906101000a900473ffffffffffffffffffffffffffffffffffffffff169050816000806101000a81548173ffffffffffffffffffffffffffffffffffffffff021916908373ffffffffffffffffffffffffffffffffffffffff1602179055508173ffffffffffffffffffffffffffffffffffffffff168173ffffffffffffffffffffffffffffffffffffffff167f8be0079c531659141344cd1fd0a4f28419497f9722a3daafe3b4186f6b6457e060405160405180910390a35050565b60805161160761013d6000396000818161064c015281816108110152610ad301526116076000f3fe6080604052600436106100dd5760003560e01c80637fd6f15c1161007f578063c04a7d0d11610059578063c04a7d0d14610272578063d0febe4c146102af578063e2eb41ff146102b9578063f2fde38b146102f6576100dd565b80637fd6f15c146101f35780638ac810021461021e5780638da5cb5b14610247576100dd565b80633ccfd60b116100bb5780633ccfd60b1461015f5780634e33f83b146101765780636c11bcd3146101b3578063715018a6146101dc576100dd565b80631b67d601146100e25780632c4e722e1461010b5780632f1c022314610136575b600080fd5b3480156100ee57600080fd5b5061010960048036038101906101049190610eda565b61031f565b005b34801561011757600080fd5b506101206103c1565b60405161012d91906111bc565b60405180910390f35b34801561014257600080fd5b5061015d60048036038101906101589190610f16565b6103c7565b005b34801561016b57600080fd5b50610174610467565b005b34801561018257600080fd5b5061019d60048036038101906101989190610eb1565b61052c565b6040516101aa91906111bc565b60405180910390f35b3480156101bf57600080fd5b506101da60048036038101906101d59190610f5b565b610575565b005b3480156101e857600080fd5b506101f1610787565b005b3480156101ff57600080fd5b5061020861080f565b60405161021591906111bc565b60405180910390f35b34801561022a57600080fd5b5061024560048036038101906102409190610eda565b610833565b005b34801561025357600080fd5b5061025c6108d5565b60405161026991906110a6565b60405180910390f35b34801561027e57600080fd5b5061029960048036038101906102949190610eb1565b6108fe565b6040516102a691906110c1565b60405180910390f35b6102b7610a34565b005b3480156102c557600080fd5b506102e060048036038101906102db9190610eb1565b610b83565b6040516102ed91906111bc565b60405180910390f35b34801561030257600080fd5b5061031d60048036038101906103189190610eb1565b610b9b565b005b610328336108fe565b610367576040517f08c379a000000000000000000000000000000000000000000000000000000000815260040161035e906110fc565b60405180910390fd5b80600360008473ffffffffffffffffffffffffffffffffffffffff1673ffffffffffffffffffffffffffffffffffffffff16815260200190815260200160002060008282546103b691906112c9565b925050819055505050565b60025481565b6103cf610c93565b73ffffffffffffffffffffffffffffffffffffffff166103ed6108d5565b73ffffffffffffffffffffffffffffffffffffffff1614610443576040517f08c379a000000000000000000000000000000000000000000000000000000000815260040161043a9061113c565b60405180910390fd5b600460006104519190610d5f565b818160049190610462929190610d80565b505050565b61046f610c93565b73ffffffffffffffffffffffffffffffffffffffff1661048d6108d5565b73ffffffffffffffffffffffffffffffffffffffff16146104e3576040517f08c379a00000000000000000000000000000000000000000000000000000000081526004016104da9061113c565b60405180910390fd5b3373ffffffffffffffffffffffffffffffffffffffff166108fc479081150290604051600060405180830381858888f19350505050158015610529573d6000803e3d6000fd5b50565b6000600360008373ffffffffffffffffffffffffffffffffffffffff1673ffffffffffffffffffffffffffffffffffffffff168152602001908152602001600020549050919050565b600260015414156105bb576040517f08c379a00000000000000000000000000000000000000000000000000000000081526004016105b29061119c565b60405180910390fd5b600260018190555080600360003373ffffffffffffffffffffffffffffffffffffffff1673ffffffffffffffffffffffffffffffffffffffff168152602001908152602001600020541015610645576040517f08c379a000000000000000000000000000000000000000000000000000000000815260040161063c9061115c565b60405180910390fd5b60006103e87f00000000000000000000000000000000000000000000000000000000000000006103e861067891906112c9565b60025484610686919061123e565b610690919061126f565b61069a919061123e565b9050804710156106df576040517f08c379a00000000000000000000000000000000000000000000000000000000081526004016106d69061111c565b60405180910390fd5b81600360003373ffffffffffffffffffffffffffffffffffffffff1673ffffffffffffffffffffffffffffffffffffffff168152602001908152602001600020600082825461072e91906112c9565b925050819055503373ffffffffffffffffffffffffffffffffffffffff166108fc829081150290604051600060405180830381858888f1935050505015801561077b573d6000803e3d6000fd5b50506001808190555050565b61078f610c93565b73ffffffffffffffffffffffffffffffffffffffff166107ad6108d5565b73ffffffffffffffffffffffffffffffffffffffff1614610803576040517f08c379a00000000000000000000000000000000000000000000000000000000081526004016107fa9061113c565b60405180910390fd5b61080d6000610c9b565b565b7f000000000000000000000000000000000000000000000000000000000000000081565b61083c336108fe565b61087b576040517f08c379a0000000000000000000000000000000000000000000000000000000008152600401610872906110fc565b60405180910390fd5b80600360008473ffffffffffffffffffffffffffffffffffffffff1673ffffffffffffffffffffffffffffffffffffffff16815260200190815260200160002060008282546108ca91906111e8565b925050819055505050565b60008060009054906101000a900473ffffffffffffffffffffffffffffffffffffffff16905090565b600080600480548060200260200160405190810160405280929190818152602001828054801561098357602002820191906000526020600020905b8160009054906101000a900473ffffffffffffffffffffffffffffffffffffffff1673ffffffffffffffffffffffffffffffffffffffff1681526020019060010190808311610939575b5050505050905060005b8151811015610a28578373ffffffffffffffffffffffffffffffffffffffff168282815181106109e6577f4e487b7100000000000000000000000000000000000000000000000000000000600052603260045260246000fd5b602002602001015173ffffffffffffffffffffffffffffffffffffffff161415610a1557600192505050610a2f565b8080610a2090611345565b91505061098d565b5060009150505b919050565b60026001541415610a7a576040517f08c379a0000000000000000000000000000000000000000000000000000000008152600401610a719061119c565b60405180910390fd5b6002600181905550662386f26fc10000341015610acc576040517f08c379a0000000000000000000000000000000000000000000000000000000008152600401610ac39061117c565b60405180910390fd5b60006103e87f00000000000000000000000000000000000000000000000000000000000000006103e8610aff91906112c9565b60025434610b0d919061126f565b610b17919061126f565b610b21919061123e565b905080600360003373ffffffffffffffffffffffffffffffffffffffff1673ffffffffffffffffffffffffffffffffffffffff1681526020019081526020016000206000828254610b7291906111e8565b925050819055505060018081905550565b60036020528060005260406000206000915090505481565b610ba3610c93565b73ffffffffffffffffffffffffffffffffffffffff16610bc16108d5565b73ffffffffffffffffffffffffffffffffffffffff1614610c17576040517f08c379a0000000000000000000000000000000000000000000000000000000008152600401610c0e9061113c565b60405180910390fd5b600073ffffffffffffffffffffffffffffffffffffffff168173ffffffffffffffffffffffffffffffffffffffff161415610c87576040517f08c379a0000000000000000000000000000000000000000000000000000000008152600401610c7e906110dc565b60405180910390fd5b610c9081610c9b565b50565b600033905090565b60008060009054906101000a900473ffffffffffffffffffffffffffffffffffffffff169050816000806101000a81548173ffffffffffffffffffffffffffffffffffffffff021916908373ffffffffffffffffffffffffffffffffffffffff1602179055508173ffffffffffffffffffffffffffffffffffffffff168173ffffffffffffffffffffffffffffffffffffffff167f8be0079c531659141344cd1fd0a4f28419497f9722a3daafe3b4186f6b6457e060405160405180910390a35050565b5080546000825590600052602060002090810190610d7d9190610e20565b50565b828054828255906000526020600020908101928215610e0f579160200282015b82811115610e0e57823573ffffffffffffffffffffffffffffffffffffffff168260006101000a81548173ffffffffffffffffffffffffffffffffffffffff021916908373ffffffffffffffffffffffffffffffffffffffff16021790555091602001919060010190610da0565b5b509050610e1c9190610e20565b5090565b5b80821115610e39576000816000905550600101610e21565b5090565b600081359050610e4c816115a3565b92915050565b60008083601f840112610e6457600080fd5b8235905067ffffffffffffffff811115610e7d57600080fd5b602083019150836020820283011115610e9557600080fd5b9250929050565b600081359050610eab816115ba565b92915050565b600060208284031215610ec357600080fd5b6000610ed184828501610e3d565b91505092915050565b60008060408385031215610eed57600080fd5b6000610efb85828601610e3d565b9250506020610f0c85828601610e9c565b9150509250929050565b60008060208385031215610f2957600080fd5b600083013567ffffffffffffffff811115610f4357600080fd5b610f4f85828601610e52565b92509250509250929050565b600060208284031215610f6d57600080fd5b6000610f7b84828501610e9c565b91505092915050565b610f8d816112fd565b82525050565b610f9c8161130f565b82525050565b6000610faf6026836111d7565b9150610fba826113ec565b604082019050919050565b6000610fd2602d836111d7565b9150610fdd8261143b565b604082019050919050565b6000610ff5601d836111d7565b91506110008261148a565b602082019050919050565b60006110186020836111d7565b9150611023826114b3565b602082019050919050565b600061103b6029836111d7565b9150611046826114dc565b604082019050919050565b600061105e6021836111d7565b91506110698261152b565b604082019050919050565b6000611081601f836111d7565b915061108c8261157a565b602082019050919050565b6110a08161133b565b82525050565b60006020820190506110bb6000830184610f84565b92915050565b60006020820190506110d66000830184610f93565b92915050565b600060208201905081810360008301526110f581610fa2565b9050919050565b6000602082019050818103600083015261111581610fc5565b9050919050565b6000602082019050818103600083015261113581610fe8565b9050919050565b600060208201905081810360008301526111558161100b565b9050919050565b600060208201905081810360008301526111758161102e565b9050919050565b6000602082019050818103600083015261119581611051565b9050919050565b600060208201905081810360008301526111b581611074565b9050919050565b60006020820190506111d16000830184611097565b92915050565b600082825260208201905092915050565b60006111f38261133b565b91506111fe8361133b565b9250827fffffffffffffffffffffffffffffffffffffffffffffffffffffffffffffffff038211156112335761123261138e565b5b828201905092915050565b60006112498261133b565b91506112548361133b565b925082611264576112636113bd565b5b828204905092915050565b600061127a8261133b565b91506112858361133b565b9250817fffffffffffffffffffffffffffffffffffffffffffffffffffffffffffffffff04831182151516156112be576112bd61138e565b5b828202905092915050565b60006112d48261133b565b91506112df8361133b565b9250828210156112f2576112f161138e565b5b828203905092915050565b60006113088261131b565b9050919050565b60008115159050919050565b600073ffffffffffffffffffffffffffffffffffffffff82169050919050565b6000819050919050565b60006113508261133b565b91507fffffffffffffffffffffffffffffffffffffffffffffffffffffffffffffffff8214156113835761138261138e565b5b600182019050919050565b7f4e487b7100000000000000000000000000000000000000000000000000000000600052601160045260246000fd5b7f4e487b7100000000000000000000000000000000000000000000000000000000600052601260045260246000fd5b7f4f776e61626c653a206e6577206f776e657220697320746865207a65726f206160008201527f6464726573730000000000000000000000000000000000000000000000000000602082015250565b7f4f6e6c792067616d6520636f6e7472616374732063616e20616374206f6e207060008201527f6c617965722062616c616e636500000000000000000000000000000000000000602082015250565b7f42616e6b20686173206e6f7420656e6f756768206c6971756964697479000000600082015250565b7f4f776e61626c653a2063616c6c6572206973206e6f7420746865206f776e6572600082015250565b7f557365722063616e742073656c6c206d6f726520746f6b656e73207468616e2060008201527f7468657920686176650000000000000000000000000000000000000000000000602082015250565b7f4d696e696d756d20616d6f756e7420746f206465706f73697420697320302e3060008201527f3100000000000000000000000000000000000000000000000000000000000000602082015250565b7f5265656e7472616e637947756172643a207265656e7472616e742063616c6c00600082015250565b6115ac816112fd565b81146115b757600080fd5b50565b6115c38161133b565b81146115ce57600080fd5b5056fea264697066735822122094a864a79fea5658cf9d43a206b5e981c1467ccf9d4748647b2482f0aeee18b064736f6c63430008040033",
  "linkReferences": {},
  "deployedLinkReferences": {}
}