{
  "_format": "hh-sol-artifact-1",
  "contractName": "Bank",
  "sourceName": "src/backend/contracts/Bank.sol",
  "abi": [
    {
      "inputs": [],
      "stateMutability": "nonpayable",
      "type": "constructor"
    },
    {
      "anonymous": false,
      "inputs": [
        {
          "indexed": true,
          "internalType": "address",
          "name": "previousOwner",
          "type": "address"
        },
        {
          "indexed": true,
          "internalType": "address",
          "name": "newOwner",
          "type": "address"
        }
      ],
      "name": "OwnershipTransferred",
      "type": "event"
    },
    {
      "inputs": [],
      "name": "buyTokens",
      "outputs": [],
      "stateMutability": "payable",
      "type": "function"
    },
    {
      "inputs": [],
      "name": "feePercent",
      "outputs": [
        {
          "internalType": "uint256",
          "name": "",
          "type": "uint256"
        }
      ],
      "stateMutability": "view",
      "type": "function"
    },
    {
      "inputs": [],
      "name": "owner",
      "outputs": [
        {
          "internalType": "address",
          "name": "",
          "type": "address"
        }
      ],
      "stateMutability": "view",
      "type": "function"
    },
    {
      "inputs": [
        {
          "internalType": "address",
          "name": "_playerAddress",
          "type": "address"
        }
      ],
      "name": "playerBalance",
      "outputs": [
        {
          "internalType": "uint256",
          "name": "",
          "type": "uint256"
        }
      ],
      "stateMutability": "view",
      "type": "function"
    },
    {
      "inputs": [
        {
          "internalType": "address",
          "name": "",
          "type": "address"
        }
      ],
      "name": "players",
      "outputs": [
        {
          "internalType": "uint256",
          "name": "",
          "type": "uint256"
        }
      ],
      "stateMutability": "view",
      "type": "function"
    },
    {
      "inputs": [],
      "name": "rate",
      "outputs": [
        {
          "internalType": "uint256",
          "name": "",
          "type": "uint256"
        }
      ],
      "stateMutability": "view",
      "type": "function"
    },
    {
      "inputs": [],
      "name": "renounceOwnership",
      "outputs": [],
      "stateMutability": "nonpayable",
      "type": "function"
    },
    {
      "inputs": [
        {
          "internalType": "uint256",
          "name": "_amount",
          "type": "uint256"
        }
      ],
      "name": "sellTokens",
      "outputs": [],
      "stateMutability": "nonpayable",
      "type": "function"
    },
    {
      "inputs": [
        {
          "internalType": "address",
          "name": "newOwner",
          "type": "address"
        }
      ],
      "name": "transferOwnership",
      "outputs": [],
      "stateMutability": "nonpayable",
      "type": "function"
    },
    {
      "inputs": [],
      "name": "withdraw",
      "outputs": [],
      "stateMutability": "nonpayable",
      "type": "function"
    }
  ],
  "bytecode": "0x60a06040526064600255602360809081525034801561001d57600080fd5b5061003a61002f61004660201b60201c565b61004e60201b60201c565b60018081905550610112565b600033905090565b60008060009054906101000a900473ffffffffffffffffffffffffffffffffffffffff169050816000806101000a81548173ffffffffffffffffffffffffffffffffffffffff021916908373ffffffffffffffffffffffffffffffffffffffff1602179055508173ffffffffffffffffffffffffffffffffffffffff168173ffffffffffffffffffffffffffffffffffffffff167f8be0079c531659141344cd1fd0a4f28419497f9722a3daafe3b4186f6b6457e060405160405180910390a35050565b608051610e5361013b60003960008181610406015281816105cb015261066b0152610e536000f3fe6080604052600436106100915760003560e01c80637fd6f15c116100595780637fd6f15c146101555780638da5cb5b14610180578063d0febe4c146101ab578063e2eb41ff146101b5578063f2fde38b146101f257610091565b80632c4e722e146100965780633ccfd60b146100c15780634e33f83b146100d85780636c11bcd314610115578063715018a61461013e575b600080fd5b3480156100a257600080fd5b506100ab61021b565b6040516100b89190610afb565b60405180910390f35b3480156100cd57600080fd5b506100d6610221565b005b3480156100e457600080fd5b506100ff60048036038101906100fa9190610921565b6102e6565b60405161010c9190610afb565b60405180910390f35b34801561012157600080fd5b5061013c6004803603810190610137919061094a565b61032f565b005b34801561014a57600080fd5b50610153610541565b005b34801561016157600080fd5b5061016a6105c9565b6040516101779190610afb565b60405180910390f35b34801561018c57600080fd5b506101956105ed565b6040516101a29190610a40565b60405180910390f35b6101b3610616565b005b3480156101c157600080fd5b506101dc60048036038101906101d79190610921565b61071b565b6040516101e99190610afb565b60405180910390f35b3480156101fe57600080fd5b5061021960048036038101906102149190610921565b610733565b005b60025481565b61022961082b565b73ffffffffffffffffffffffffffffffffffffffff166102476105ed565b73ffffffffffffffffffffffffffffffffffffffff161461029d576040517f08c379a000000000000000000000000000000000000000000000000000000000815260040161029490610a9b565b60405180910390fd5b3373ffffffffffffffffffffffffffffffffffffffff166108fc479081150290604051600060405180830381858888f193505050501580156102e3573d6000803e3d6000fd5b50565b6000600360008373ffffffffffffffffffffffffffffffffffffffff1673ffffffffffffffffffffffffffffffffffffffff168152602001908152602001600020549050919050565b60026001541415610375576040517f08c379a000000000000000000000000000000000000000000000000000000000815260040161036c90610adb565b60405180910390fd5b600260018190555080600360003373ffffffffffffffffffffffffffffffffffffffff1673ffffffffffffffffffffffffffffffffffffffff1681526020019081526020016000205410156103ff576040517f08c379a00000000000000000000000000000000000000000000000000000000081526004016103f690610abb565b60405180910390fd5b60006103e87f00000000000000000000000000000000000000000000000000000000000000006103e86104329190610c08565b600254846104409190610b7d565b61044a9190610bae565b6104549190610b7d565b905080471015610499576040517f08c379a000000000000000000000000000000000000000000000000000000000815260040161049090610a7b565b60405180910390fd5b81600360003373ffffffffffffffffffffffffffffffffffffffff1673ffffffffffffffffffffffffffffffffffffffff16815260200190815260200160002060008282546104e89190610c08565b925050819055503373ffffffffffffffffffffffffffffffffffffffff166108fc829081150290604051600060405180830381858888f19350505050158015610535573d6000803e3d6000fd5b50506001808190555050565b61054961082b565b73ffffffffffffffffffffffffffffffffffffffff166105676105ed565b73ffffffffffffffffffffffffffffffffffffffff16146105bd576040517f08c379a00000000000000000000000000000000000000000000000000000000081526004016105b490610a9b565b60405180910390fd5b6105c76000610833565b565b7f000000000000000000000000000000000000000000000000000000000000000081565b60008060009054906101000a900473ffffffffffffffffffffffffffffffffffffffff16905090565b6002600154141561065c576040517f08c379a000000000000000000000000000000000000000000000000000000000815260040161065390610adb565b60405180910390fd5b600260018190555060006103e87f00000000000000000000000000000000000000000000000000000000000000006103e86106979190610c08565b600254346106a59190610bae565b6106af9190610bae565b6106b99190610b7d565b905080600360003373ffffffffffffffffffffffffffffffffffffffff1673ffffffffffffffffffffffffffffffffffffffff168152602001908152602001600020600082825461070a9190610b27565b925050819055505060018081905550565b60036020528060005260406000206000915090505481565b61073b61082b565b73ffffffffffffffffffffffffffffffffffffffff166107596105ed565b73ffffffffffffffffffffffffffffffffffffffff16146107af576040517f08c379a00000000000000000000000000000000000000000000000000000000081526004016107a690610a9b565b60405180910390fd5b600073ffffffffffffffffffffffffffffffffffffffff168173ffffffffffffffffffffffffffffffffffffffff16141561081f576040517f08c379a000000000000000000000000000000000000000000000000000000000815260040161081690610a5b565b60405180910390fd5b61082881610833565b50565b600033905090565b60008060009054906101000a900473ffffffffffffffffffffffffffffffffffffffff169050816000806101000a81548173ffffffffffffffffffffffffffffffffffffffff021916908373ffffffffffffffffffffffffffffffffffffffff1602179055508173ffffffffffffffffffffffffffffffffffffffff168173ffffffffffffffffffffffffffffffffffffffff167f8be0079c531659141344cd1fd0a4f28419497f9722a3daafe3b4186f6b6457e060405160405180910390a35050565b60008135905061090681610def565b92915050565b60008135905061091b81610e06565b92915050565b60006020828403121561093357600080fd5b6000610941848285016108f7565b91505092915050565b60006020828403121561095c57600080fd5b600061096a8482850161090c565b91505092915050565b61097c81610c3c565b82525050565b600061098f602683610b16565b915061099a82610cd6565b604082019050919050565b60006109b2601d83610b16565b91506109bd82610d25565b602082019050919050565b60006109d5602083610b16565b91506109e082610d4e565b602082019050919050565b60006109f8602983610b16565b9150610a0382610d77565b604082019050919050565b6000610a1b601f83610b16565b9150610a2682610dc6565b602082019050919050565b610a3a81610c6e565b82525050565b6000602082019050610a556000830184610973565b92915050565b60006020820190508181036000830152610a7481610982565b9050919050565b60006020820190508181036000830152610a94816109a5565b9050919050565b60006020820190508181036000830152610ab4816109c8565b9050919050565b60006020820190508181036000830152610ad4816109eb565b9050919050565b60006020820190508181036000830152610af481610a0e565b9050919050565b6000602082019050610b106000830184610a31565b92915050565b600082825260208201905092915050565b6000610b3282610c6e565b9150610b3d83610c6e565b9250827fffffffffffffffffffffffffffffffffffffffffffffffffffffffffffffffff03821115610b7257610b71610c78565b5b828201905092915050565b6000610b8882610c6e565b9150610b9383610c6e565b925082610ba357610ba2610ca7565b5b828204905092915050565b6000610bb982610c6e565b9150610bc483610c6e565b9250817fffffffffffffffffffffffffffffffffffffffffffffffffffffffffffffffff0483118215151615610bfd57610bfc610c78565b5b828202905092915050565b6000610c1382610c6e565b9150610c1e83610c6e565b925082821015610c3157610c30610c78565b5b828203905092915050565b6000610c4782610c4e565b9050919050565b600073ffffffffffffffffffffffffffffffffffffffff82169050919050565b6000819050919050565b7f4e487b7100000000000000000000000000000000000000000000000000000000600052601160045260246000fd5b7f4e487b7100000000000000000000000000000000000000000000000000000000600052601260045260246000fd5b7f4f776e61626c653a206e6577206f776e657220697320746865207a65726f206160008201527f6464726573730000000000000000000000000000000000000000000000000000602082015250565b7f42616e6b20686173206e6f7420656e6f756768206c6971756964697479000000600082015250565b7f4f776e61626c653a2063616c6c6572206973206e6f7420746865206f776e6572600082015250565b7f557365722063616e742073656c6c206d6f726520746f6b656e73207468616e2060008201527f7468657920686176650000000000000000000000000000000000000000000000602082015250565b7f5265656e7472616e637947756172643a207265656e7472616e742063616c6c00600082015250565b610df881610c3c565b8114610e0357600080fd5b50565b610e0f81610c6e565b8114610e1a57600080fd5b5056fea26469706673582212207a21a19265451a350f8382be4b3547516008526a161a7fd93428cc348a5252e364736f6c63430008040033",
  "linkReferences": {},
  "deployedLinkReferences": {}
}