{
  "_format": "hh-sol-artifact-1",
  "contractName": "Bank",
  "sourceName": "src/backend/contracts/Bank.sol",
  "abi": [
    {
      "inputs": [],
      "stateMutability": "nonpayable",
      "type": "constructor"
    },
    {
      "anonymous": false,
      "inputs": [
        {
          "indexed": true,
          "internalType": "address",
          "name": "previousOwner",
          "type": "address"
        },
        {
          "indexed": true,
          "internalType": "address",
          "name": "newOwner",
          "type": "address"
        }
      ],
      "name": "OwnershipTransferred",
      "type": "event"
    },
    {
      "inputs": [
        {
          "internalType": "address",
          "name": "_playerAddress",
          "type": "address"
        },
        {
          "internalType": "uint256",
          "name": "_amount",
          "type": "uint256"
        }
      ],
      "name": "addPlayerBalance",
      "outputs": [],
      "stateMutability": "nonpayable",
      "type": "function"
    },
    {
      "inputs": [],
      "name": "buyTokens",
      "outputs": [],
      "stateMutability": "payable",
      "type": "function"
    },
    {
      "inputs": [],
      "name": "feePercent",
      "outputs": [
        {
          "internalType": "uint256",
          "name": "",
          "type": "uint256"
        }
      ],
      "stateMutability": "view",
      "type": "function"
    },
    {
      "inputs": [
        {
          "internalType": "address",
          "name": "_gameContract",
          "type": "address"
        }
      ],
      "name": "isGameContract",
      "outputs": [
        {
          "internalType": "bool",
          "name": "",
          "type": "bool"
        }
      ],
      "stateMutability": "view",
      "type": "function"
    },
    {
      "inputs": [],
      "name": "owner",
      "outputs": [
        {
          "internalType": "address",
          "name": "",
          "type": "address"
        }
      ],
      "stateMutability": "view",
      "type": "function"
    },
    {
      "inputs": [
        {
          "internalType": "address",
          "name": "_playerAddress",
          "type": "address"
        }
      ],
      "name": "playerBalance",
      "outputs": [
        {
          "internalType": "uint256",
          "name": "",
          "type": "uint256"
        }
      ],
      "stateMutability": "view",
      "type": "function"
    },
    {
      "inputs": [
        {
          "internalType": "address",
          "name": "",
          "type": "address"
        }
      ],
      "name": "players",
      "outputs": [
        {
          "internalType": "uint256",
          "name": "",
          "type": "uint256"
        }
      ],
      "stateMutability": "view",
      "type": "function"
    },
    {
      "inputs": [],
      "name": "rate",
      "outputs": [
        {
          "internalType": "uint256",
          "name": "",
          "type": "uint256"
        }
      ],
      "stateMutability": "view",
      "type": "function"
    },
    {
      "inputs": [],
      "name": "renounceOwnership",
      "outputs": [],
      "stateMutability": "nonpayable",
      "type": "function"
    },
    {
      "inputs": [
        {
          "internalType": "uint256",
          "name": "_amount",
          "type": "uint256"
        }
      ],
      "name": "sellTokens",
      "outputs": [],
      "stateMutability": "nonpayable",
      "type": "function"
    },
    {
      "inputs": [
        {
          "internalType": "address[]",
          "name": "_gameContracts",
          "type": "address[]"
        }
      ],
      "name": "setGameContracts",
      "outputs": [],
      "stateMutability": "nonpayable",
      "type": "function"
    },
    {
      "inputs": [
        {
          "internalType": "address",
          "name": "_playerAddress",
          "type": "address"
        },
        {
          "internalType": "uint256",
          "name": "_amount",
          "type": "uint256"
        }
      ],
      "name": "substractPlayerBalance",
      "outputs": [],
      "stateMutability": "nonpayable",
      "type": "function"
    },
    {
      "inputs": [
        {
          "internalType": "address",
          "name": "newOwner",
          "type": "address"
        }
      ],
      "name": "transferOwnership",
      "outputs": [],
      "stateMutability": "nonpayable",
      "type": "function"
    },
    {
      "inputs": [],
      "name": "withdraw",
      "outputs": [],
      "stateMutability": "nonpayable",
      "type": "function"
    }
  ],
  "bytecode": "0x60a06040526064600255602360809081525034801561001d57600080fd5b5061003a61002f61004660201b60201c565b61004e60201b60201c565b60018081905550610112565b600033905090565b60008060009054906101000a900473ffffffffffffffffffffffffffffffffffffffff169050816000806101000a81548173ffffffffffffffffffffffffffffffffffffffff021916908373ffffffffffffffffffffffffffffffffffffffff1602179055508173ffffffffffffffffffffffffffffffffffffffff168173ffffffffffffffffffffffffffffffffffffffff167f8be0079c531659141344cd1fd0a4f28419497f9722a3daafe3b4186f6b6457e060405160405180910390a35050565b60805161152b61013b6000396000818161064c015281816108110152610a89015261152b6000f3fe6080604052600436106100dd5760003560e01c80637fd6f15c1161007f578063c04a7d0d11610059578063c04a7d0d14610272578063d0febe4c146102af578063e2eb41ff146102b9578063f2fde38b146102f6576100dd565b80637fd6f15c146101f35780638ac810021461021e5780638da5cb5b14610247576100dd565b80633ccfd60b116100bb5780633ccfd60b1461015f5780634e33f83b146101765780636c11bcd3146101b3578063715018a6146101dc576100dd565b80631b67d601146100e25780632c4e722e1461010b5780632f1c022314610136575b600080fd5b3480156100ee57600080fd5b5061010960048036038101906101049190610e90565b61031f565b005b34801561011757600080fd5b506101206103c1565b60405161012d919061112f565b60405180910390f35b34801561014257600080fd5b5061015d60048036038101906101589190610ecc565b6103c7565b005b34801561016b57600080fd5b50610174610467565b005b34801561018257600080fd5b5061019d60048036038101906101989190610e67565b61052c565b6040516101aa919061112f565b60405180910390f35b3480156101bf57600080fd5b506101da60048036038101906101d59190610f11565b610575565b005b3480156101e857600080fd5b506101f1610787565b005b3480156101ff57600080fd5b5061020861080f565b604051610215919061112f565b60405180910390f35b34801561022a57600080fd5b5061024560048036038101906102409190610e90565b610833565b005b34801561025357600080fd5b5061025c6108d5565b6040516102699190611039565b60405180910390f35b34801561027e57600080fd5b5061029960048036038101906102949190610e67565b6108fe565b6040516102a69190611054565b60405180910390f35b6102b7610a34565b005b3480156102c557600080fd5b506102e060048036038101906102db9190610e67565b610b39565b6040516102ed919061112f565b60405180910390f35b34801561030257600080fd5b5061031d60048036038101906103189190610e67565b610b51565b005b610328336108fe565b610367576040517f08c379a000000000000000000000000000000000000000000000000000000000815260040161035e9061108f565b60405180910390fd5b80600360008473ffffffffffffffffffffffffffffffffffffffff1673ffffffffffffffffffffffffffffffffffffffff16815260200190815260200160002060008282546103b6919061123c565b925050819055505050565b60025481565b6103cf610c49565b73ffffffffffffffffffffffffffffffffffffffff166103ed6108d5565b73ffffffffffffffffffffffffffffffffffffffff1614610443576040517f08c379a000000000000000000000000000000000000000000000000000000000815260040161043a906110cf565b60405180910390fd5b600460006104519190610d15565b818160049190610462929190610d36565b505050565b61046f610c49565b73ffffffffffffffffffffffffffffffffffffffff1661048d6108d5565b73ffffffffffffffffffffffffffffffffffffffff16146104e3576040517f08c379a00000000000000000000000000000000000000000000000000000000081526004016104da906110cf565b60405180910390fd5b3373ffffffffffffffffffffffffffffffffffffffff166108fc479081150290604051600060405180830381858888f19350505050158015610529573d6000803e3d6000fd5b50565b6000600360008373ffffffffffffffffffffffffffffffffffffffff1673ffffffffffffffffffffffffffffffffffffffff168152602001908152602001600020549050919050565b600260015414156105bb576040517f08c379a00000000000000000000000000000000000000000000000000000000081526004016105b29061110f565b60405180910390fd5b600260018190555080600360003373ffffffffffffffffffffffffffffffffffffffff1673ffffffffffffffffffffffffffffffffffffffff168152602001908152602001600020541015610645576040517f08c379a000000000000000000000000000000000000000000000000000000000815260040161063c906110ef565b60405180910390fd5b60006103e87f00000000000000000000000000000000000000000000000000000000000000006103e8610678919061123c565b6002548461068691906111b1565b61069091906111e2565b61069a91906111b1565b9050804710156106df576040517f08c379a00000000000000000000000000000000000000000000000000000000081526004016106d6906110af565b60405180910390fd5b81600360003373ffffffffffffffffffffffffffffffffffffffff1673ffffffffffffffffffffffffffffffffffffffff168152602001908152602001600020600082825461072e919061123c565b925050819055503373ffffffffffffffffffffffffffffffffffffffff166108fc829081150290604051600060405180830381858888f1935050505015801561077b573d6000803e3d6000fd5b50506001808190555050565b61078f610c49565b73ffffffffffffffffffffffffffffffffffffffff166107ad6108d5565b73ffffffffffffffffffffffffffffffffffffffff1614610803576040517f08c379a00000000000000000000000000000000000000000000000000000000081526004016107fa906110cf565b60405180910390fd5b61080d6000610c51565b565b7f000000000000000000000000000000000000000000000000000000000000000081565b61083c336108fe565b61087b576040517f08c379a00000000000000000000000000000000000000000000000000000000081526004016108729061108f565b60405180910390fd5b80600360008473ffffffffffffffffffffffffffffffffffffffff1673ffffffffffffffffffffffffffffffffffffffff16815260200190815260200160002060008282546108ca919061115b565b925050819055505050565b60008060009054906101000a900473ffffffffffffffffffffffffffffffffffffffff16905090565b600080600480548060200260200160405190810160405280929190818152602001828054801561098357602002820191906000526020600020905b8160009054906101000a900473ffffffffffffffffffffffffffffffffffffffff1673ffffffffffffffffffffffffffffffffffffffff1681526020019060010190808311610939575b5050505050905060005b8151811015610a28578373ffffffffffffffffffffffffffffffffffffffff168282815181106109e6577f4e487b7100000000000000000000000000000000000000000000000000000000600052603260045260246000fd5b602002602001015173ffffffffffffffffffffffffffffffffffffffff161415610a1557600192505050610a2f565b8080610a20906112b8565b91505061098d565b5060009150505b919050565b60026001541415610a7a576040517f08c379a0000000000000000000000000000000000000000000000000000000008152600401610a719061110f565b60405180910390fd5b600260018190555060006103e87f00000000000000000000000000000000000000000000000000000000000000006103e8610ab5919061123c565b60025434610ac391906111e2565b610acd91906111e2565b610ad791906111b1565b905080600360003373ffffffffffffffffffffffffffffffffffffffff1673ffffffffffffffffffffffffffffffffffffffff1681526020019081526020016000206000828254610b28919061115b565b925050819055505060018081905550565b60036020528060005260406000206000915090505481565b610b59610c49565b73ffffffffffffffffffffffffffffffffffffffff16610b776108d5565b73ffffffffffffffffffffffffffffffffffffffff1614610bcd576040517f08c379a0000000000000000000000000000000000000000000000000000000008152600401610bc4906110cf565b60405180910390fd5b600073ffffffffffffffffffffffffffffffffffffffff168173ffffffffffffffffffffffffffffffffffffffff161415610c3d576040517f08c379a0000000000000000000000000000000000000000000000000000000008152600401610c349061106f565b60405180910390fd5b610c4681610c51565b50565b600033905090565b60008060009054906101000a900473ffffffffffffffffffffffffffffffffffffffff169050816000806101000a81548173ffffffffffffffffffffffffffffffffffffffff021916908373ffffffffffffffffffffffffffffffffffffffff1602179055508173ffffffffffffffffffffffffffffffffffffffff168173ffffffffffffffffffffffffffffffffffffffff167f8be0079c531659141344cd1fd0a4f28419497f9722a3daafe3b4186f6b6457e060405160405180910390a35050565b5080546000825590600052602060002090810190610d339190610dd6565b50565b828054828255906000526020600020908101928215610dc5579160200282015b82811115610dc457823573ffffffffffffffffffffffffffffffffffffffff168260006101000a81548173ffffffffffffffffffffffffffffffffffffffff021916908373ffffffffffffffffffffffffffffffffffffffff16021790555091602001919060010190610d56565b5b509050610dd29190610dd6565b5090565b5b80821115610def576000816000905550600101610dd7565b5090565b600081359050610e02816114c7565b92915050565b60008083601f840112610e1a57600080fd5b8235905067ffffffffffffffff811115610e3357600080fd5b602083019150836020820283011115610e4b57600080fd5b9250929050565b600081359050610e61816114de565b92915050565b600060208284031215610e7957600080fd5b6000610e8784828501610df3565b91505092915050565b60008060408385031215610ea357600080fd5b6000610eb185828601610df3565b9250506020610ec285828601610e52565b9150509250929050565b60008060208385031215610edf57600080fd5b600083013567ffffffffffffffff811115610ef957600080fd5b610f0585828601610e08565b92509250509250929050565b600060208284031215610f2357600080fd5b6000610f3184828501610e52565b91505092915050565b610f4381611270565b82525050565b610f5281611282565b82525050565b6000610f6560268361114a565b9150610f708261135f565b604082019050919050565b6000610f88602d8361114a565b9150610f93826113ae565b604082019050919050565b6000610fab601d8361114a565b9150610fb6826113fd565b602082019050919050565b6000610fce60208361114a565b9150610fd982611426565b602082019050919050565b6000610ff160298361114a565b9150610ffc8261144f565b604082019050919050565b6000611014601f8361114a565b915061101f8261149e565b602082019050919050565b611033816112ae565b82525050565b600060208201905061104e6000830184610f3a565b92915050565b60006020820190506110696000830184610f49565b92915050565b6000602082019050818103600083015261108881610f58565b9050919050565b600060208201905081810360008301526110a881610f7b565b9050919050565b600060208201905081810360008301526110c881610f9e565b9050919050565b600060208201905081810360008301526110e881610fc1565b9050919050565b6000602082019050818103600083015261110881610fe4565b9050919050565b6000602082019050818103600083015261112881611007565b9050919050565b6000602082019050611144600083018461102a565b92915050565b600082825260208201905092915050565b6000611166826112ae565b9150611171836112ae565b9250827fffffffffffffffffffffffffffffffffffffffffffffffffffffffffffffffff038211156111a6576111a5611301565b5b828201905092915050565b60006111bc826112ae565b91506111c7836112ae565b9250826111d7576111d6611330565b5b828204905092915050565b60006111ed826112ae565b91506111f8836112ae565b9250817fffffffffffffffffffffffffffffffffffffffffffffffffffffffffffffffff048311821515161561123157611230611301565b5b828202905092915050565b6000611247826112ae565b9150611252836112ae565b92508282101561126557611264611301565b5b828203905092915050565b600061127b8261128e565b9050919050565b60008115159050919050565b600073ffffffffffffffffffffffffffffffffffffffff82169050919050565b6000819050919050565b60006112c3826112ae565b91507fffffffffffffffffffffffffffffffffffffffffffffffffffffffffffffffff8214156112f6576112f5611301565b5b600182019050919050565b7f4e487b7100000000000000000000000000000000000000000000000000000000600052601160045260246000fd5b7f4e487b7100000000000000000000000000000000000000000000000000000000600052601260045260246000fd5b7f4f776e61626c653a206e6577206f776e657220697320746865207a65726f206160008201527f6464726573730000000000000000000000000000000000000000000000000000602082015250565b7f4f6e6c792067616d6520636f6e7472616374732063616e20616374206f6e207060008201527f6c617965722062616c616e636500000000000000000000000000000000000000602082015250565b7f42616e6b20686173206e6f7420656e6f756768206c6971756964697479000000600082015250565b7f4f776e61626c653a2063616c6c6572206973206e6f7420746865206f776e6572600082015250565b7f557365722063616e742073656c6c206d6f726520746f6b656e73207468616e2060008201527f7468657920686176650000000000000000000000000000000000000000000000602082015250565b7f5265656e7472616e637947756172643a207265656e7472616e742063616c6c00600082015250565b6114d081611270565b81146114db57600080fd5b50565b6114e7816112ae565b81146114f257600080fd5b5056fea26469706673582212200d7ec132034826f911b4cc21d91dcb0f9f8a4a10eee7d5cb7aaa13be19726c5664736f6c63430008040033",
  "linkReferences": {},
  "deployedLinkReferences": {}
}