{
  "_format": "hh-sol-artifact-1",
  "contractName": "CoinFlip",
  "sourceName": "src/backend/contracts/CoinFlip.sol",
  "abi": [
    {
      "inputs": [
        {
          "internalType": "address",
          "name": "_bankAddress",
          "type": "address"
        }
      ],
      "stateMutability": "nonpayable",
      "type": "constructor"
    },
    {
      "anonymous": false,
      "inputs": [
        {
          "indexed": true,
          "internalType": "address",
          "name": "previousOwner",
          "type": "address"
        },
        {
          "indexed": true,
          "internalType": "address",
          "name": "newOwner",
          "type": "address"
        }
      ],
      "name": "OwnershipTransferred",
      "type": "event"
    },
    {
      "inputs": [],
      "name": "flipResult",
      "outputs": [
        {
          "internalType": "bool",
          "name": "",
          "type": "bool"
        }
      ],
      "stateMutability": "pure",
      "type": "function"
    },
    {
      "inputs": [],
      "name": "owner",
      "outputs": [
        {
          "internalType": "address",
          "name": "",
          "type": "address"
        }
      ],
      "stateMutability": "view",
      "type": "function"
    },
    {
      "inputs": [
        {
          "internalType": "uint256",
          "name": "_betAmount",
          "type": "uint256"
        }
      ],
      "name": "play",
      "outputs": [],
      "stateMutability": "nonpayable",
      "type": "function"
    },
    {
      "inputs": [],
      "name": "renounceOwnership",
      "outputs": [],
      "stateMutability": "nonpayable",
      "type": "function"
    },
    {
      "inputs": [
        {
          "internalType": "address",
          "name": "newOwner",
          "type": "address"
        }
      ],
      "name": "transferOwnership",
      "outputs": [],
      "stateMutability": "nonpayable",
      "type": "function"
    }
  ],
  "bytecode": "0x608060405234801561001057600080fd5b50604051610ae4380380610ae48339818101604052810190610032919061017d565b61004e61004361009c60201b60201c565b6100a460201b60201c565b6001808190555080600260006101000a81548173ffffffffffffffffffffffffffffffffffffffff021916908373ffffffffffffffffffffffffffffffffffffffff160217905550506101ef565b600033905090565b60008060009054906101000a900473ffffffffffffffffffffffffffffffffffffffff169050816000806101000a81548173ffffffffffffffffffffffffffffffffffffffff021916908373ffffffffffffffffffffffffffffffffffffffff1602179055508173ffffffffffffffffffffffffffffffffffffffff168173ffffffffffffffffffffffffffffffffffffffff167f8be0079c531659141344cd1fd0a4f28419497f9722a3daafe3b4186f6b6457e060405160405180910390a35050565b600081519050610177816101d8565b92915050565b60006020828403121561018f57600080fd5b600061019d84828501610168565b91505092915050565b60006101b1826101b8565b9050919050565b600073ffffffffffffffffffffffffffffffffffffffff82169050919050565b6101e1816101a6565b81146101ec57600080fd5b50565b6108e6806101fe6000396000f3fe608060405234801561001057600080fd5b50600436106100575760003560e01c80636898f82b1461005c578063715018a6146100785780638da5cb5b14610082578063d15cd791146100a0578063f2fde38b146100be575b600080fd5b610076600480360381019061007191906105e1565b6100da565b005b6100806102fb565b005b61008a610383565b60405161009791906106c9565b60405180910390f35b6100a86103ac565b6040516100b5919061070d565b60405180910390f35b6100d860048036038101906100d391906105b8565b6103b5565b005b80600260009054906101000a900473ffffffffffffffffffffffffffffffffffffffff1673ffffffffffffffffffffffffffffffffffffffff16634e33f83b336040518263ffffffff1660e01b815260040161013691906106c9565b60206040518083038186803b15801561014e57600080fd5b505afa158015610162573d6000803e3d6000fd5b505050506040513d601f19601f82011682018060405250810190610186919061060a565b10156101c7576040517f08c379a00000000000000000000000000000000000000000000000000000000081526004016101be90610748565b60405180910390fd5b6101cf6103ac565b1561026857600260009054906101000a900473ffffffffffffffffffffffffffffffffffffffff1673ffffffffffffffffffffffffffffffffffffffff16638ac8100233836040518363ffffffff1660e01b81526004016102319291906106e4565b600060405180830381600087803b15801561024b57600080fd5b505af115801561025f573d6000803e3d6000fd5b505050506102f8565b600260009054906101000a900473ffffffffffffffffffffffffffffffffffffffff1673ffffffffffffffffffffffffffffffffffffffff16631b67d60133836040518363ffffffff1660e01b81526004016102c59291906106e4565b600060405180830381600087803b1580156102df57600080fd5b505af11580156102f3573d6000803e3d6000fd5b505050505b50565b6103036104ad565b73ffffffffffffffffffffffffffffffffffffffff16610321610383565b73ffffffffffffffffffffffffffffffffffffffff1614610377576040517f08c379a000000000000000000000000000000000000000000000000000000000815260040161036e90610768565b60405180910390fd5b61038160006104b5565b565b60008060009054906101000a900473ffffffffffffffffffffffffffffffffffffffff16905090565b60006001905090565b6103bd6104ad565b73ffffffffffffffffffffffffffffffffffffffff166103db610383565b73ffffffffffffffffffffffffffffffffffffffff1614610431576040517f08c379a000000000000000000000000000000000000000000000000000000000815260040161042890610768565b60405180910390fd5b600073ffffffffffffffffffffffffffffffffffffffff168173ffffffffffffffffffffffffffffffffffffffff1614156104a1576040517f08c379a000000000000000000000000000000000000000000000000000000000815260040161049890610728565b60405180910390fd5b6104aa816104b5565b50565b600033905090565b60008060009054906101000a900473ffffffffffffffffffffffffffffffffffffffff169050816000806101000a81548173ffffffffffffffffffffffffffffffffffffffff021916908373ffffffffffffffffffffffffffffffffffffffff1602179055508173ffffffffffffffffffffffffffffffffffffffff168173ffffffffffffffffffffffffffffffffffffffff167f8be0079c531659141344cd1fd0a4f28419497f9722a3daafe3b4186f6b6457e060405160405180910390a35050565b60008135905061058881610882565b92915050565b60008135905061059d81610899565b92915050565b6000815190506105b281610899565b92915050565b6000602082840312156105ca57600080fd5b60006105d884828501610579565b91505092915050565b6000602082840312156105f357600080fd5b60006106018482850161058e565b91505092915050565b60006020828403121561061c57600080fd5b600061062a848285016105a3565b91505092915050565b61063c81610799565b82525050565b61064b816107ab565b82525050565b600061065e602683610788565b9150610669826107e1565b604082019050919050565b6000610681601783610788565b915061068c82610830565b602082019050919050565b60006106a4602083610788565b91506106af82610859565b602082019050919050565b6106c3816107d7565b82525050565b60006020820190506106de6000830184610633565b92915050565b60006040820190506106f96000830185610633565b61070660208301846106ba565b9392505050565b60006020820190506107226000830184610642565b92915050565b6000602082019050818103600083015261074181610651565b9050919050565b6000602082019050818103600083015261076181610674565b9050919050565b6000602082019050818103600083015261078181610697565b9050919050565b600082825260208201905092915050565b60006107a4826107b7565b9050919050565b60008115159050919050565b600073ffffffffffffffffffffffffffffffffffffffff82169050919050565b6000819050919050565b7f4f776e61626c653a206e6577206f776e657220697320746865207a65726f206160008201527f6464726573730000000000000000000000000000000000000000000000000000602082015250565b7f4e6f7420656e6f75676820636f696e7320746f20626574000000000000000000600082015250565b7f4f776e61626c653a2063616c6c6572206973206e6f7420746865206f776e6572600082015250565b61088b81610799565b811461089657600080fd5b50565b6108a2816107d7565b81146108ad57600080fd5b5056fea26469706673582212202e1e74d6bfaad13b9ad3d0e0910bd319916295ff4f90e8cc4aac5d70a5d709eb64736f6c63430008040033",
  "linkReferences": {},
  "deployedLinkReferences": {}
}