{
  "_format": "hh-sol-artifact-1",
  "contractName": "CoinFlip",
  "sourceName": "src/backend/contracts/CoinFlip.sol",
  "abi": [
    {
      "inputs": [
        {
          "internalType": "address",
          "name": "_bankAddress",
          "type": "address"
        },
        {
          "internalType": "uint64",
          "name": "subscriptionId",
          "type": "uint64"
        }
      ],
      "stateMutability": "nonpayable",
      "type": "constructor"
    },
    {
      "inputs": [
        {
          "internalType": "address",
          "name": "have",
          "type": "address"
        },
        {
          "internalType": "address",
          "name": "want",
          "type": "address"
        }
      ],
      "name": "OnlyCoordinatorCanFulfill",
      "type": "error"
    },
    {
      "anonymous": false,
      "inputs": [
        {
          "indexed": false,
          "internalType": "address",
          "name": "user",
          "type": "address"
        },
        {
          "indexed": false,
          "internalType": "uint256",
          "name": "amount",
          "type": "uint256"
        },
        {
          "indexed": false,
          "internalType": "uint256",
          "name": "result",
          "type": "uint256"
        }
      ],
      "name": "BetSettled",
      "type": "event"
    },
    {
      "anonymous": false,
      "inputs": [
        {
          "indexed": true,
          "internalType": "address",
          "name": "previousOwner",
          "type": "address"
        },
        {
          "indexed": true,
          "internalType": "address",
          "name": "newOwner",
          "type": "address"
        }
      ],
      "name": "OwnershipTransferred",
      "type": "event"
    },
    {
      "inputs": [],
      "name": "owner",
      "outputs": [
        {
          "internalType": "address",
          "name": "",
          "type": "address"
        }
      ],
      "stateMutability": "view",
      "type": "function"
    },
    {
      "inputs": [
        {
          "internalType": "uint256",
          "name": "_betAmount",
          "type": "uint256"
        }
      ],
      "name": "play",
      "outputs": [],
      "stateMutability": "nonpayable",
      "type": "function"
    },
    {
      "inputs": [
        {
          "internalType": "uint256",
          "name": "requestId",
          "type": "uint256"
        },
        {
          "internalType": "uint256[]",
          "name": "randomWords",
          "type": "uint256[]"
        }
      ],
      "name": "rawFulfillRandomWords",
      "outputs": [],
      "stateMutability": "nonpayable",
      "type": "function"
    },
    {
      "inputs": [],
      "name": "renounceOwnership",
      "outputs": [],
      "stateMutability": "nonpayable",
      "type": "function"
    },
    {
      "inputs": [],
      "name": "requestFlip",
      "outputs": [],
      "stateMutability": "nonpayable",
      "type": "function"
    },
    {
      "inputs": [
        {
          "internalType": "uint256",
          "name": "",
          "type": "uint256"
        }
      ],
      "name": "s_randomWords",
      "outputs": [
        {
          "internalType": "uint256",
          "name": "",
          "type": "uint256"
        }
      ],
      "stateMutability": "view",
      "type": "function"
    },
    {
      "inputs": [],
      "name": "s_requestId",
      "outputs": [
        {
          "internalType": "uint256",
          "name": "",
          "type": "uint256"
        }
      ],
      "stateMutability": "view",
      "type": "function"
    },
    {
      "inputs": [
        {
          "internalType": "address",
          "name": "newOwner",
          "type": "address"
        }
      ],
      "name": "transferOwnership",
      "outputs": [],
      "stateMutability": "nonpayable",
      "type": "function"
    }
  ],
  "bytecode": "0x60a0604052732ca8e0c643bde4c2e08ab1fa0da3401adad7734d600460006101000a81548173ffffffffffffffffffffffffffffffffffffffff021916908373ffffffffffffffffffffffffffffffffffffffff1602179055507f79d3d8832d904592c0bf9818b621522c988bb8b0c05cdc3b15aea1b6e8db0c1560001b600555620186a0600660006101000a81548163ffffffff021916908363ffffffff1602179055506003600660046101000a81548161ffff021916908361ffff16021790555060016006806101000a81548163ffffffff021916908363ffffffff160217905550348015620000f057600080fd5b506040516200174938038062001749833981810160405281019062000116919062000367565b600460009054906101000a900473ffffffffffffffffffffffffffffffffffffffff16620001596200014d6200026d60201b60201c565b6200027560201b60201c565b600180819055508073ffffffffffffffffffffffffffffffffffffffff1660808173ffffffffffffffffffffffffffffffffffffffff1660601b815250505081600260006101000a81548173ffffffffffffffffffffffffffffffffffffffff021916908373ffffffffffffffffffffffffffffffffffffffff160217905550600460009054906101000a900473ffffffffffffffffffffffffffffffffffffffff16600360006101000a81548173ffffffffffffffffffffffffffffffffffffffff021916908373ffffffffffffffffffffffffffffffffffffffff16021790555080600260146101000a81548167ffffffffffffffff021916908367ffffffffffffffff160217905550505062000424565b600033905090565b60008060009054906101000a900473ffffffffffffffffffffffffffffffffffffffff169050816000806101000a81548173ffffffffffffffffffffffffffffffffffffffff021916908373ffffffffffffffffffffffffffffffffffffffff1602179055508173ffffffffffffffffffffffffffffffffffffffff168173ffffffffffffffffffffffffffffffffffffffff167f8be0079c531659141344cd1fd0a4f28419497f9722a3daafe3b4186f6b6457e060405160405180910390a35050565b6000815190506200034a81620003f0565b92915050565b60008151905062000361816200040a565b92915050565b600080604083850312156200037b57600080fd5b60006200038b8582860162000339565b92505060206200039e8582860162000350565b9150509250929050565b6000620003b582620003bc565b9050919050565b600073ffffffffffffffffffffffffffffffffffffffff82169050919050565b600067ffffffffffffffff82169050919050565b620003fb81620003a8565b81146200040757600080fd5b50565b6200041581620003dc565b81146200042157600080fd5b50565b60805160601c6112ff6200044a6000396000818161016301526101b701526112ff6000f3fe608060405234801561001057600080fd5b50600436106100885760003560e01c8063982121c31161005b578063982121c3146100ed578063e89e106a146100f7578063f2fde38b14610115578063f6eaffc81461013157610088565b80631fe543e31461008d5780636898f82b146100a9578063715018a6146100c55780638da5cb5b146100cf575b600080fd5b6100a760048036038101906100a29190610cf7565b610161565b005b6100c360048036038101906100be9190610ca5565b610221565b005b6100cd6103c2565b005b6100d761044a565b6040516100e49190610e31565b60405180910390f35b6100f5610473565b005b6100ff61057a565b60405161010c9190610fa8565b60405180910390f35b61012f600480360381019061012a9190610c7c565b610580565b005b61014b60048036038101906101469190610ca5565b610678565b6040516101589190610fa8565b60405180910390f35b7f000000000000000000000000000000000000000000000000000000000000000073ffffffffffffffffffffffffffffffffffffffff163373ffffffffffffffffffffffffffffffffffffffff161461021357337f00000000000000000000000000000000000000000000000000000000000000006040517f1cf993f400000000000000000000000000000000000000000000000000000000815260040161020a929190610e4c565b60405180910390fd5b61021d828261069c565b5050565b80600260009054906101000a900473ffffffffffffffffffffffffffffffffffffffff1673ffffffffffffffffffffffffffffffffffffffff16634e33f83b336040518263ffffffff1660e01b815260040161027d9190610e31565b60206040518083038186803b15801561029557600080fd5b505afa1580156102a9573d6000803e3d6000fd5b505050506040513d601f19601f820116820180604052508101906102cd9190610cce565b101561030e576040517f08c379a000000000000000000000000000000000000000000000000000000000815260040161030590610f48565b60405180910390fd5b610316610473565b600960405180604001604052803373ffffffffffffffffffffffffffffffffffffffff16815260200183815250908060018154018082558091505060019003906000526020600020906002020160009091909190915060008201518160000160006101000a81548173ffffffffffffffffffffffffffffffffffffffff021916908373ffffffffffffffffffffffffffffffffffffffff16021790555060208201518160010155505050565b6103ca610a71565b73ffffffffffffffffffffffffffffffffffffffff166103e861044a565b73ffffffffffffffffffffffffffffffffffffffff161461043e576040517f08c379a000000000000000000000000000000000000000000000000000000000815260040161043590610f88565b60405180910390fd5b6104486000610a79565b565b60008060009054906101000a900473ffffffffffffffffffffffffffffffffffffffff16905090565b600360009054906101000a900473ffffffffffffffffffffffffffffffffffffffff1673ffffffffffffffffffffffffffffffffffffffff16635d3b1d30600554600260149054906101000a900467ffffffffffffffff16600660049054906101000a900461ffff16600660009054906101000a900463ffffffff1660068054906101000a900463ffffffff166040518663ffffffff1660e01b8152600401610520959493929190610ed5565b602060405180830381600087803b15801561053a57600080fd5b505af115801561054e573d6000803e3d6000fd5b505050506040513d601f19601f820116820180604052508101906105729190610cce565b600881905550565b60085481565b610588610a71565b73ffffffffffffffffffffffffffffffffffffffff166105a661044a565b73ffffffffffffffffffffffffffffffffffffffff16146105fc576040517f08c379a00000000000000000000000000000000000000000000000000000000081526004016105f390610f88565b60405180910390fd5b600073ffffffffffffffffffffffffffffffffffffffff168173ffffffffffffffffffffffffffffffffffffffff16141561066c576040517f08c379a000000000000000000000000000000000000000000000000000000000815260040161066390610f28565b60405180910390fd5b61067581610a79565b50565b6007818154811061068857600080fd5b906000526020600020016000915090505481565b80600790805190602001906106b2929190610b3d565b506000600980549050905060008111610700576040517f08c379a00000000000000000000000000000000000000000000000000000000081526004016106f790610f68565b60405180910390fd5b600060096001836107119190611025565b81548110610748577f4e487b7100000000000000000000000000000000000000000000000000000000600052603260045260246000fd5b90600052602060002090600202016040518060400160405290816000820160009054906101000a900473ffffffffffffffffffffffffffffffffffffffff1673ffffffffffffffffffffffffffffffffffffffff1673ffffffffffffffffffffffffffffffffffffffff16815260200160018201548152505090506000600160026007600081548110610804577f4e487b7100000000000000000000000000000000000000000000000000000000600052603260045260246000fd5b90600052602060002001546108199190611102565b14905080156108be57600260009054906101000a900473ffffffffffffffffffffffffffffffffffffffff1673ffffffffffffffffffffffffffffffffffffffff16638ac81002836000015184602001516040518363ffffffff1660e01b8152600401610887929190610e75565b600060405180830381600087803b1580156108a157600080fd5b505af11580156108b5573d6000803e3d6000fd5b50505050610956565b600260009054906101000a900473ffffffffffffffffffffffffffffffffffffffff1673ffffffffffffffffffffffffffffffffffffffff16631b67d601836000015184602001516040518363ffffffff1660e01b8152600401610923929190610e75565b600060405180830381600087803b15801561093d57600080fd5b505af1158015610951573d6000803e3d6000fd5b505050505b7f771be7e3b85839d84838615b9a1d913cb6b7c4327121a950129806f092f5a52682600001518360200151600260076000815481106109be577f4e487b7100000000000000000000000000000000000000000000000000000000600052603260045260246000fd5b90600052602060002001546109d39190611102565b6040516109e293929190610e9e565b60405180910390a16009805480610a22577f4e487b7100000000000000000000000000000000000000000000000000000000600052603160045260246000fd5b6001900381819060005260206000209060020201600080820160006101000a81549073ffffffffffffffffffffffffffffffffffffffff02191690556001820160009055505090555050505050565b600033905090565b60008060009054906101000a900473ffffffffffffffffffffffffffffffffffffffff169050816000806101000a81548173ffffffffffffffffffffffffffffffffffffffff021916908373ffffffffffffffffffffffffffffffffffffffff1602179055508173ffffffffffffffffffffffffffffffffffffffff168173ffffffffffffffffffffffffffffffffffffffff167f8be0079c531659141344cd1fd0a4f28419497f9722a3daafe3b4186f6b6457e060405160405180910390a35050565b828054828255906000526020600020908101928215610b79579160200282015b82811115610b78578251825591602001919060010190610b5d565b5b509050610b869190610b8a565b5090565b5b80821115610ba3576000816000905550600101610b8b565b5090565b6000610bba610bb584610fe8565b610fc3565b90508083825260208201905082856020860282011115610bd957600080fd5b60005b85811015610c095781610bef8882610c52565b845260208401935060208301925050600181019050610bdc565b5050509392505050565b600081359050610c228161129b565b92915050565b600082601f830112610c3957600080fd5b8135610c49848260208601610ba7565b91505092915050565b600081359050610c61816112b2565b92915050565b600081519050610c76816112b2565b92915050565b600060208284031215610c8e57600080fd5b6000610c9c84828501610c13565b91505092915050565b600060208284031215610cb757600080fd5b6000610cc584828501610c52565b91505092915050565b600060208284031215610ce057600080fd5b6000610cee84828501610c67565b91505092915050565b60008060408385031215610d0a57600080fd5b6000610d1885828601610c52565b925050602083013567ffffffffffffffff811115610d3557600080fd5b610d4185828601610c28565b9150509250929050565b610d5481611059565b82525050565b610d638161106b565b82525050565b6000610d76602683611014565b9150610d81826111d1565b604082019050919050565b6000610d99601783611014565b9150610da482611220565b602082019050919050565b6000610dbc601083611014565b9150610dc782611249565b602082019050919050565b6000610ddf602083611014565b9150610dea82611272565b602082019050919050565b610dfe81611075565b82525050565b610e0d816110a3565b82525050565b610e1c816110ad565b82525050565b610e2b816110bd565b82525050565b6000602082019050610e466000830184610d4b565b92915050565b6000604082019050610e616000830185610d4b565b610e6e6020830184610d4b565b9392505050565b6000604082019050610e8a6000830185610d4b565b610e976020830184610e04565b9392505050565b6000606082019050610eb36000830186610d4b565b610ec06020830185610e04565b610ecd6040830184610e04565b949350505050565b600060a082019050610eea6000830188610d5a565b610ef76020830187610e22565b610f046040830186610df5565b610f116060830185610e13565b610f1e6080830184610e13565b9695505050505050565b60006020820190508181036000830152610f4181610d69565b9050919050565b60006020820190508181036000830152610f6181610d8c565b9050919050565b60006020820190508181036000830152610f8181610daf565b9050919050565b60006020820190508181036000830152610fa181610dd2565b9050919050565b6000602082019050610fbd6000830184610e04565b92915050565b6000610fcd610fde565b9050610fd982826110d1565b919050565b6000604051905090565b600067ffffffffffffffff82111561100357611002611191565b5b602082029050602081019050919050565b600082825260208201905092915050565b6000611030826110a3565b915061103b836110a3565b92508282101561104e5761104d611133565b5b828203905092915050565b600061106482611083565b9050919050565b6000819050919050565b600061ffff82169050919050565b600073ffffffffffffffffffffffffffffffffffffffff82169050919050565b6000819050919050565b600063ffffffff82169050919050565b600067ffffffffffffffff82169050919050565b6110da826111c0565b810181811067ffffffffffffffff821117156110f9576110f8611191565b5b80604052505050565b600061110d826110a3565b9150611118836110a3565b92508261112857611127611162565b5b828206905092915050565b7f4e487b7100000000000000000000000000000000000000000000000000000000600052601160045260246000fd5b7f4e487b7100000000000000000000000000000000000000000000000000000000600052601260045260246000fd5b7f4e487b7100000000000000000000000000000000000000000000000000000000600052604160045260246000fd5b6000601f19601f8301169050919050565b7f4f776e61626c653a206e6577206f776e657220697320746865207a65726f206160008201527f6464726573730000000000000000000000000000000000000000000000000000602082015250565b7f4e6f7420656e6f75676820636f696e7320746f20626574000000000000000000600082015250565b7f4e6f206265747320696e20717565756500000000000000000000000000000000600082015250565b7f4f776e61626c653a2063616c6c6572206973206e6f7420746865206f776e6572600082015250565b6112a481611059565b81146112af57600080fd5b50565b6112bb816110a3565b81146112c657600080fd5b5056fea26469706673582212205d57d5563f35c77d3039d580f319e17500405c6457738b5afaa5133ee895950164736f6c63430008040033",
  "linkReferences": {},
  "deployedLinkReferences": {}
}