{
  "_format": "hh-sol-artifact-1",
  "contractName": "CoinFlip",
  "sourceName": "src/backend/contracts/CoinFlip.sol",
  "abi": [
    {
      "inputs": [
        {
          "internalType": "address",
          "name": "_bankAddress",
          "type": "address"
        },
        {
          "internalType": "uint64",
          "name": "subscriptionId",
          "type": "uint64"
        }
      ],
      "stateMutability": "nonpayable",
      "type": "constructor"
    },
    {
      "inputs": [
        {
          "internalType": "address",
          "name": "have",
          "type": "address"
        },
        {
          "internalType": "address",
          "name": "want",
          "type": "address"
        }
      ],
      "name": "OnlyCoordinatorCanFulfill",
      "type": "error"
    },
    {
      "anonymous": false,
      "inputs": [
        {
          "indexed": false,
          "internalType": "address",
          "name": "user",
          "type": "address"
        },
        {
          "indexed": false,
          "internalType": "uint256",
          "name": "amount",
          "type": "uint256"
        },
        {
          "indexed": false,
          "internalType": "uint256",
          "name": "result",
          "type": "uint256"
        }
      ],
      "name": "BetSettled",
      "type": "event"
    },
    {
      "anonymous": false,
      "inputs": [
        {
          "indexed": false,
          "internalType": "address",
          "name": "user",
          "type": "address"
        },
        {
          "indexed": false,
          "internalType": "uint256",
          "name": "amount",
          "type": "uint256"
        }
      ],
      "name": "BetStarted",
      "type": "event"
    },
    {
      "anonymous": false,
      "inputs": [
        {
          "indexed": true,
          "internalType": "address",
          "name": "previousOwner",
          "type": "address"
        },
        {
          "indexed": true,
          "internalType": "address",
          "name": "newOwner",
          "type": "address"
        }
      ],
      "name": "OwnershipTransferred",
      "type": "event"
    },
    {
      "inputs": [],
      "name": "owner",
      "outputs": [
        {
          "internalType": "address",
          "name": "",
          "type": "address"
        }
      ],
      "stateMutability": "view",
      "type": "function"
    },
    {
      "inputs": [
        {
          "internalType": "uint256",
          "name": "_betAmount",
          "type": "uint256"
        }
      ],
      "name": "play",
      "outputs": [],
      "stateMutability": "nonpayable",
      "type": "function"
    },
    {
      "inputs": [
        {
          "internalType": "uint256",
          "name": "requestId",
          "type": "uint256"
        },
        {
          "internalType": "uint256[]",
          "name": "randomWords",
          "type": "uint256[]"
        }
      ],
      "name": "rawFulfillRandomWords",
      "outputs": [],
      "stateMutability": "nonpayable",
      "type": "function"
    },
    {
      "inputs": [],
      "name": "renounceOwnership",
      "outputs": [],
      "stateMutability": "nonpayable",
      "type": "function"
    },
    {
      "inputs": [],
      "name": "requestFlip",
      "outputs": [],
      "stateMutability": "nonpayable",
      "type": "function"
    },
    {
      "inputs": [
        {
          "internalType": "uint256",
          "name": "",
          "type": "uint256"
        }
      ],
      "name": "s_randomWords",
      "outputs": [
        {
          "internalType": "uint256",
          "name": "",
          "type": "uint256"
        }
      ],
      "stateMutability": "view",
      "type": "function"
    },
    {
      "inputs": [],
      "name": "s_requestId",
      "outputs": [
        {
          "internalType": "uint256",
          "name": "",
          "type": "uint256"
        }
      ],
      "stateMutability": "view",
      "type": "function"
    },
    {
      "inputs": [
        {
          "internalType": "address",
          "name": "newOwner",
          "type": "address"
        }
      ],
      "name": "transferOwnership",
      "outputs": [],
      "stateMutability": "nonpayable",
      "type": "function"
    }
  ],
  "bytecode": "0x60a0604052732ca8e0c643bde4c2e08ab1fa0da3401adad7734d600460006101000a81548173ffffffffffffffffffffffffffffffffffffffff021916908373ffffffffffffffffffffffffffffffffffffffff1602179055507f79d3d8832d904592c0bf9818b621522c988bb8b0c05cdc3b15aea1b6e8db0c1560001b600555620186a0600660006101000a81548163ffffffff021916908363ffffffff1602179055506003600660046101000a81548161ffff021916908361ffff16021790555060016006806101000a81548163ffffffff021916908363ffffffff160217905550348015620000f057600080fd5b506040516200178238038062001782833981810160405281019062000116919062000367565b600460009054906101000a900473ffffffffffffffffffffffffffffffffffffffff16620001596200014d6200026d60201b60201c565b6200027560201b60201c565b600180819055508073ffffffffffffffffffffffffffffffffffffffff1660808173ffffffffffffffffffffffffffffffffffffffff1660601b815250505081600260006101000a81548173ffffffffffffffffffffffffffffffffffffffff021916908373ffffffffffffffffffffffffffffffffffffffff160217905550600460009054906101000a900473ffffffffffffffffffffffffffffffffffffffff16600360006101000a81548173ffffffffffffffffffffffffffffffffffffffff021916908373ffffffffffffffffffffffffffffffffffffffff16021790555080600260146101000a81548167ffffffffffffffff021916908367ffffffffffffffff160217905550505062000424565b600033905090565b60008060009054906101000a900473ffffffffffffffffffffffffffffffffffffffff169050816000806101000a81548173ffffffffffffffffffffffffffffffffffffffff021916908373ffffffffffffffffffffffffffffffffffffffff1602179055508173ffffffffffffffffffffffffffffffffffffffff168173ffffffffffffffffffffffffffffffffffffffff167f8be0079c531659141344cd1fd0a4f28419497f9722a3daafe3b4186f6b6457e060405160405180910390a35050565b6000815190506200034a81620003f0565b92915050565b60008151905062000361816200040a565b92915050565b600080604083850312156200037b57600080fd5b60006200038b8582860162000339565b92505060206200039e8582860162000350565b9150509250929050565b6000620003b582620003bc565b9050919050565b600073ffffffffffffffffffffffffffffffffffffffff82169050919050565b600067ffffffffffffffff82169050919050565b620003fb81620003a8565b81146200040757600080fd5b50565b6200041581620003dc565b81146200042157600080fd5b50565b60805160601c6113386200044a6000396000818161016301526101b701526113386000f3fe608060405234801561001057600080fd5b50600436106100885760003560e01c8063982121c31161005b578063982121c3146100ed578063e89e106a146100f7578063f2fde38b14610115578063f6eaffc81461013157610088565b80631fe543e31461008d5780636898f82b146100a9578063715018a6146100c55780638da5cb5b146100cf575b600080fd5b6100a760048036038101906100a29190610d30565b610161565b005b6100c360048036038101906100be9190610cde565b610221565b005b6100cd6103fb565b005b6100d7610483565b6040516100e49190610e6a565b60405180910390f35b6100f56104ac565b005b6100ff6105b3565b60405161010c9190610fe1565b60405180910390f35b61012f600480360381019061012a9190610cb5565b6105b9565b005b61014b60048036038101906101469190610cde565b6106b1565b6040516101589190610fe1565b60405180910390f35b7f000000000000000000000000000000000000000000000000000000000000000073ffffffffffffffffffffffffffffffffffffffff163373ffffffffffffffffffffffffffffffffffffffff161461021357337f00000000000000000000000000000000000000000000000000000000000000006040517f1cf993f400000000000000000000000000000000000000000000000000000000815260040161020a929190610e85565b60405180910390fd5b61021d82826106d5565b5050565b80600260009054906101000a900473ffffffffffffffffffffffffffffffffffffffff1673ffffffffffffffffffffffffffffffffffffffff16634e33f83b336040518263ffffffff1660e01b815260040161027d9190610e6a565b60206040518083038186803b15801561029557600080fd5b505afa1580156102a9573d6000803e3d6000fd5b505050506040513d601f19601f820116820180604052508101906102cd9190610d07565b101561030e576040517f08c379a000000000000000000000000000000000000000000000000000000000815260040161030590610f81565b60405180910390fd5b6103166104ac565b600960405180604001604052803373ffffffffffffffffffffffffffffffffffffffff16815260200183815250908060018154018082558091505060019003906000526020600020906002020160009091909190915060008201518160000160006101000a81548173ffffffffffffffffffffffffffffffffffffffff021916908373ffffffffffffffffffffffffffffffffffffffff1602179055506020820151816001015550507fad16b187516cd4aeaa1d1e0ee600ca3ef483a51acbb0c11bcd77516d00e2edef33826040516103f0929190610eae565b60405180910390a150565b610403610aaa565b73ffffffffffffffffffffffffffffffffffffffff16610421610483565b73ffffffffffffffffffffffffffffffffffffffff1614610477576040517f08c379a000000000000000000000000000000000000000000000000000000000815260040161046e90610fc1565b60405180910390fd5b6104816000610ab2565b565b60008060009054906101000a900473ffffffffffffffffffffffffffffffffffffffff16905090565b600360009054906101000a900473ffffffffffffffffffffffffffffffffffffffff1673ffffffffffffffffffffffffffffffffffffffff16635d3b1d30600554600260149054906101000a900467ffffffffffffffff16600660049054906101000a900461ffff16600660009054906101000a900463ffffffff1660068054906101000a900463ffffffff166040518663ffffffff1660e01b8152600401610559959493929190610f0e565b602060405180830381600087803b15801561057357600080fd5b505af1158015610587573d6000803e3d6000fd5b505050506040513d601f19601f820116820180604052508101906105ab9190610d07565b600881905550565b60085481565b6105c1610aaa565b73ffffffffffffffffffffffffffffffffffffffff166105df610483565b73ffffffffffffffffffffffffffffffffffffffff1614610635576040517f08c379a000000000000000000000000000000000000000000000000000000000815260040161062c90610fc1565b60405180910390fd5b600073ffffffffffffffffffffffffffffffffffffffff168173ffffffffffffffffffffffffffffffffffffffff1614156106a5576040517f08c379a000000000000000000000000000000000000000000000000000000000815260040161069c90610f61565b60405180910390fd5b6106ae81610ab2565b50565b600781815481106106c157600080fd5b906000526020600020016000915090505481565b80600790805190602001906106eb929190610b76565b506000600980549050905060008111610739576040517f08c379a000000000000000000000000000000000000000000000000000000000815260040161073090610fa1565b60405180910390fd5b6000600960018361074a919061105e565b81548110610781577f4e487b7100000000000000000000000000000000000000000000000000000000600052603260045260246000fd5b90600052602060002090600202016040518060400160405290816000820160009054906101000a900473ffffffffffffffffffffffffffffffffffffffff1673ffffffffffffffffffffffffffffffffffffffff1673ffffffffffffffffffffffffffffffffffffffff1681526020016001820154815250509050600060016002600760008154811061083d577f4e487b7100000000000000000000000000000000000000000000000000000000600052603260045260246000fd5b9060005260206000200154610852919061113b565b14905080156108f757600260009054906101000a900473ffffffffffffffffffffffffffffffffffffffff1673ffffffffffffffffffffffffffffffffffffffff16638ac81002836000015184602001516040518363ffffffff1660e01b81526004016108c0929190610eae565b600060405180830381600087803b1580156108da57600080fd5b505af11580156108ee573d6000803e3d6000fd5b5050505061098f565b600260009054906101000a900473ffffffffffffffffffffffffffffffffffffffff1673ffffffffffffffffffffffffffffffffffffffff16631b67d601836000015184602001516040518363ffffffff1660e01b815260040161095c929190610eae565b600060405180830381600087803b15801561097657600080fd5b505af115801561098a573d6000803e3d6000fd5b505050505b7f771be7e3b85839d84838615b9a1d913cb6b7c4327121a950129806f092f5a52682600001518360200151600260076000815481106109f7577f4e487b7100000000000000000000000000000000000000000000000000000000600052603260045260246000fd5b9060005260206000200154610a0c919061113b565b604051610a1b93929190610ed7565b60405180910390a16009805480610a5b577f4e487b7100000000000000000000000000000000000000000000000000000000600052603160045260246000fd5b6001900381819060005260206000209060020201600080820160006101000a81549073ffffffffffffffffffffffffffffffffffffffff02191690556001820160009055505090555050505050565b600033905090565b60008060009054906101000a900473ffffffffffffffffffffffffffffffffffffffff169050816000806101000a81548173ffffffffffffffffffffffffffffffffffffffff021916908373ffffffffffffffffffffffffffffffffffffffff1602179055508173ffffffffffffffffffffffffffffffffffffffff168173ffffffffffffffffffffffffffffffffffffffff167f8be0079c531659141344cd1fd0a4f28419497f9722a3daafe3b4186f6b6457e060405160405180910390a35050565b828054828255906000526020600020908101928215610bb2579160200282015b82811115610bb1578251825591602001919060010190610b96565b5b509050610bbf9190610bc3565b5090565b5b80821115610bdc576000816000905550600101610bc4565b5090565b6000610bf3610bee84611021565b610ffc565b90508083825260208201905082856020860282011115610c1257600080fd5b60005b85811015610c425781610c288882610c8b565b845260208401935060208301925050600181019050610c15565b5050509392505050565b600081359050610c5b816112d4565b92915050565b600082601f830112610c7257600080fd5b8135610c82848260208601610be0565b91505092915050565b600081359050610c9a816112eb565b92915050565b600081519050610caf816112eb565b92915050565b600060208284031215610cc757600080fd5b6000610cd584828501610c4c565b91505092915050565b600060208284031215610cf057600080fd5b6000610cfe84828501610c8b565b91505092915050565b600060208284031215610d1957600080fd5b6000610d2784828501610ca0565b91505092915050565b60008060408385031215610d4357600080fd5b6000610d5185828601610c8b565b925050602083013567ffffffffffffffff811115610d6e57600080fd5b610d7a85828601610c61565b9150509250929050565b610d8d81611092565b82525050565b610d9c816110a4565b82525050565b6000610daf60268361104d565b9150610dba8261120a565b604082019050919050565b6000610dd260178361104d565b9150610ddd82611259565b602082019050919050565b6000610df560108361104d565b9150610e0082611282565b602082019050919050565b6000610e1860208361104d565b9150610e23826112ab565b602082019050919050565b610e37816110ae565b82525050565b610e46816110dc565b82525050565b610e55816110e6565b82525050565b610e64816110f6565b82525050565b6000602082019050610e7f6000830184610d84565b92915050565b6000604082019050610e9a6000830185610d84565b610ea76020830184610d84565b9392505050565b6000604082019050610ec36000830185610d84565b610ed06020830184610e3d565b9392505050565b6000606082019050610eec6000830186610d84565b610ef96020830185610e3d565b610f066040830184610e3d565b949350505050565b600060a082019050610f236000830188610d93565b610f306020830187610e5b565b610f3d6040830186610e2e565b610f4a6060830185610e4c565b610f576080830184610e4c565b9695505050505050565b60006020820190508181036000830152610f7a81610da2565b9050919050565b60006020820190508181036000830152610f9a81610dc5565b9050919050565b60006020820190508181036000830152610fba81610de8565b9050919050565b60006020820190508181036000830152610fda81610e0b565b9050919050565b6000602082019050610ff66000830184610e3d565b92915050565b6000611006611017565b9050611012828261110a565b919050565b6000604051905090565b600067ffffffffffffffff82111561103c5761103b6111ca565b5b602082029050602081019050919050565b600082825260208201905092915050565b6000611069826110dc565b9150611074836110dc565b9250828210156110875761108661116c565b5b828203905092915050565b600061109d826110bc565b9050919050565b6000819050919050565b600061ffff82169050919050565b600073ffffffffffffffffffffffffffffffffffffffff82169050919050565b6000819050919050565b600063ffffffff82169050919050565b600067ffffffffffffffff82169050919050565b611113826111f9565b810181811067ffffffffffffffff82111715611132576111316111ca565b5b80604052505050565b6000611146826110dc565b9150611151836110dc565b9250826111615761116061119b565b5b828206905092915050565b7f4e487b7100000000000000000000000000000000000000000000000000000000600052601160045260246000fd5b7f4e487b7100000000000000000000000000000000000000000000000000000000600052601260045260246000fd5b7f4e487b7100000000000000000000000000000000000000000000000000000000600052604160045260246000fd5b6000601f19601f8301169050919050565b7f4f776e61626c653a206e6577206f776e657220697320746865207a65726f206160008201527f6464726573730000000000000000000000000000000000000000000000000000602082015250565b7f4e6f7420656e6f75676820636f696e7320746f20626574000000000000000000600082015250565b7f4e6f206265747320696e20717565756500000000000000000000000000000000600082015250565b7f4f776e61626c653a2063616c6c6572206973206e6f7420746865206f776e6572600082015250565b6112dd81611092565b81146112e857600080fd5b50565b6112f4816110dc565b81146112ff57600080fd5b5056fea2646970667358221220754985969ae23cbc90339f22f75b7d9ad75c63d6966a8badbe2c0f08f300f67264736f6c63430008040033",
  "linkReferences": {},
  "deployedLinkReferences": {}
}