{
  "_format": "hh-sol-artifact-1",
  "contractName": "CoinFlip",
  "sourceName": "src/backend/contracts/CoinFlip.sol",
  "abi": [
    {
      "inputs": [
        {
          "internalType": "address",
          "name": "_bankAddress",
          "type": "address"
        }
      ],
      "stateMutability": "nonpayable",
      "type": "constructor"
    },
    {
      "anonymous": false,
      "inputs": [
        {
          "indexed": true,
          "internalType": "address",
          "name": "previousOwner",
          "type": "address"
        },
        {
          "indexed": true,
          "internalType": "address",
          "name": "newOwner",
          "type": "address"
        }
      ],
      "name": "OwnershipTransferred",
      "type": "event"
    },
    {
      "inputs": [],
      "name": "flipResult",
      "outputs": [
        {
          "internalType": "bool",
          "name": "",
          "type": "bool"
        }
      ],
      "stateMutability": "pure",
      "type": "function"
    },
    {
      "inputs": [],
      "name": "owner",
      "outputs": [
        {
          "internalType": "address",
          "name": "",
          "type": "address"
        }
      ],
      "stateMutability": "view",
      "type": "function"
    },
    {
      "inputs": [
        {
          "internalType": "uint256",
          "name": "_betAmount",
          "type": "uint256"
        }
      ],
      "name": "play",
      "outputs": [],
      "stateMutability": "nonpayable",
      "type": "function"
    },
    {
      "inputs": [],
      "name": "renounceOwnership",
      "outputs": [],
      "stateMutability": "nonpayable",
      "type": "function"
    },
    {
      "inputs": [
        {
          "internalType": "address",
          "name": "newOwner",
          "type": "address"
        }
      ],
      "name": "transferOwnership",
      "outputs": [],
      "stateMutability": "nonpayable",
      "type": "function"
    }
  ],
  "bytecode": "0x608060405234801561001057600080fd5b50604051610ae0380380610ae08339818101604052810190610032919061017d565b61004e61004361009c60201b60201c565b6100a460201b60201c565b6001808190555080600260006101000a81548173ffffffffffffffffffffffffffffffffffffffff021916908373ffffffffffffffffffffffffffffffffffffffff160217905550506101ef565b600033905090565b60008060009054906101000a900473ffffffffffffffffffffffffffffffffffffffff169050816000806101000a81548173ffffffffffffffffffffffffffffffffffffffff021916908373ffffffffffffffffffffffffffffffffffffffff1602179055508173ffffffffffffffffffffffffffffffffffffffff168173ffffffffffffffffffffffffffffffffffffffff167f8be0079c531659141344cd1fd0a4f28419497f9722a3daafe3b4186f6b6457e060405160405180910390a35050565b600081519050610177816101d8565b92915050565b60006020828403121561018f57600080fd5b600061019d84828501610168565b91505092915050565b60006101b1826101b8565b9050919050565b600073ffffffffffffffffffffffffffffffffffffffff82169050919050565b6101e1816101a6565b81146101ec57600080fd5b50565b6108e2806101fe6000396000f3fe608060405234801561001057600080fd5b50600436106100575760003560e01c80636898f82b1461005c578063715018a6146100785780638da5cb5b14610082578063d15cd791146100a0578063f2fde38b146100be575b600080fd5b610076600480360381019061007191906105dd565b6100da565b005b6100806102fb565b005b61008a610383565b60405161009791906106c5565b60405180910390f35b6100a86103ac565b6040516100b59190610709565b60405180910390f35b6100d860048036038101906100d391906105b4565b6103b1565b005b80600260009054906101000a900473ffffffffffffffffffffffffffffffffffffffff1673ffffffffffffffffffffffffffffffffffffffff16634e33f83b336040518263ffffffff1660e01b815260040161013691906106c5565b60206040518083038186803b15801561014e57600080fd5b505afa158015610162573d6000803e3d6000fd5b505050506040513d601f19601f820116820180604052508101906101869190610606565b10156101c7576040517f08c379a00000000000000000000000000000000000000000000000000000000081526004016101be90610744565b60405180910390fd5b6101cf6103ac565b1561026857600260009054906101000a900473ffffffffffffffffffffffffffffffffffffffff1673ffffffffffffffffffffffffffffffffffffffff16638ac8100233836040518363ffffffff1660e01b81526004016102319291906106e0565b600060405180830381600087803b15801561024b57600080fd5b505af115801561025f573d6000803e3d6000fd5b505050506102f8565b600260009054906101000a900473ffffffffffffffffffffffffffffffffffffffff1673ffffffffffffffffffffffffffffffffffffffff16631b67d60133836040518363ffffffff1660e01b81526004016102c59291906106e0565b600060405180830381600087803b1580156102df57600080fd5b505af11580156102f3573d6000803e3d6000fd5b505050505b50565b6103036104a9565b73ffffffffffffffffffffffffffffffffffffffff16610321610383565b73ffffffffffffffffffffffffffffffffffffffff1614610377576040517f08c379a000000000000000000000000000000000000000000000000000000000815260040161036e90610764565b60405180910390fd5b61038160006104b1565b565b60008060009054906101000a900473ffffffffffffffffffffffffffffffffffffffff16905090565b600090565b6103b96104a9565b73ffffffffffffffffffffffffffffffffffffffff166103d7610383565b73ffffffffffffffffffffffffffffffffffffffff161461042d576040517f08c379a000000000000000000000000000000000000000000000000000000000815260040161042490610764565b60405180910390fd5b600073ffffffffffffffffffffffffffffffffffffffff168173ffffffffffffffffffffffffffffffffffffffff16141561049d576040517f08c379a000000000000000000000000000000000000000000000000000000000815260040161049490610724565b60405180910390fd5b6104a6816104b1565b50565b600033905090565b60008060009054906101000a900473ffffffffffffffffffffffffffffffffffffffff169050816000806101000a81548173ffffffffffffffffffffffffffffffffffffffff021916908373ffffffffffffffffffffffffffffffffffffffff1602179055508173ffffffffffffffffffffffffffffffffffffffff168173ffffffffffffffffffffffffffffffffffffffff167f8be0079c531659141344cd1fd0a4f28419497f9722a3daafe3b4186f6b6457e060405160405180910390a35050565b6000813590506105848161087e565b92915050565b60008135905061059981610895565b92915050565b6000815190506105ae81610895565b92915050565b6000602082840312156105c657600080fd5b60006105d484828501610575565b91505092915050565b6000602082840312156105ef57600080fd5b60006105fd8482850161058a565b91505092915050565b60006020828403121561061857600080fd5b60006106268482850161059f565b91505092915050565b61063881610795565b82525050565b610647816107a7565b82525050565b600061065a602683610784565b9150610665826107dd565b604082019050919050565b600061067d601783610784565b91506106888261082c565b602082019050919050565b60006106a0602083610784565b91506106ab82610855565b602082019050919050565b6106bf816107d3565b82525050565b60006020820190506106da600083018461062f565b92915050565b60006040820190506106f5600083018561062f565b61070260208301846106b6565b9392505050565b600060208201905061071e600083018461063e565b92915050565b6000602082019050818103600083015261073d8161064d565b9050919050565b6000602082019050818103600083015261075d81610670565b9050919050565b6000602082019050818103600083015261077d81610693565b9050919050565b600082825260208201905092915050565b60006107a0826107b3565b9050919050565b60008115159050919050565b600073ffffffffffffffffffffffffffffffffffffffff82169050919050565b6000819050919050565b7f4f776e61626c653a206e6577206f776e657220697320746865207a65726f206160008201527f6464726573730000000000000000000000000000000000000000000000000000602082015250565b7f4e6f7420656e6f75676820636f696e7320746f20626574000000000000000000600082015250565b7f4f776e61626c653a2063616c6c6572206973206e6f7420746865206f776e6572600082015250565b61088781610795565b811461089257600080fd5b50565b61089e816107d3565b81146108a957600080fd5b5056fea264697066735822122076621e059200ca313a5d2b0f85a0d71f9846c4207b1152eb3567455e78fa7f0464736f6c63430008040033",
  "linkReferences": {},
  "deployedLinkReferences": {}
}