{
  "_format": "hh-sol-artifact-1",
  "contractName": "House",
  "sourceName": "src/backend/contracts/House.sol",
  "abi": [
    {
      "inputs": [
        {
          "internalType": "address",
          "name": "_newOwner",
          "type": "address"
        },
        {
          "internalType": "address[]",
          "name": "_admins",
          "type": "address[]"
        },
        {
          "internalType": "address",
          "name": "_tokenAddress",
          "type": "address"
        }
      ],
      "stateMutability": "nonpayable",
      "type": "constructor"
    },
    {
      "anonymous": false,
      "inputs": [
        {
          "indexed": true,
          "internalType": "address",
          "name": "previousOwner",
          "type": "address"
        },
        {
          "indexed": true,
          "internalType": "address",
          "name": "newOwner",
          "type": "address"
        }
      ],
      "name": "OwnershipTransferred",
      "type": "event"
    },
    {
      "inputs": [
        {
          "internalType": "address",
          "name": "_playerAddress",
          "type": "address"
        },
        {
          "internalType": "uint256",
          "name": "_amount",
          "type": "uint256"
        }
      ],
      "name": "addPlayerBalance",
      "outputs": [],
      "stateMutability": "nonpayable",
      "type": "function"
    },
    {
      "inputs": [],
      "name": "buyTokens",
      "outputs": [],
      "stateMutability": "payable",
      "type": "function"
    },
    {
      "inputs": [],
      "name": "feePercentDeposit",
      "outputs": [
        {
          "internalType": "uint256",
          "name": "",
          "type": "uint256"
        }
      ],
      "stateMutability": "view",
      "type": "function"
    },
    {
      "inputs": [],
      "name": "feePercentWithdraw",
      "outputs": [
        {
          "internalType": "uint256",
          "name": "",
          "type": "uint256"
        }
      ],
      "stateMutability": "view",
      "type": "function"
    },
    {
      "inputs": [],
      "name": "getFeePercentDeposit",
      "outputs": [
        {
          "internalType": "uint256",
          "name": "",
          "type": "uint256"
        }
      ],
      "stateMutability": "view",
      "type": "function"
    },
    {
      "inputs": [],
      "name": "getFeePercentWithdraw",
      "outputs": [
        {
          "internalType": "uint256",
          "name": "",
          "type": "uint256"
        }
      ],
      "stateMutability": "view",
      "type": "function"
    },
    {
      "inputs": [
        {
          "internalType": "address",
          "name": "_user",
          "type": "address"
        }
      ],
      "name": "isAdmin",
      "outputs": [
        {
          "internalType": "bool",
          "name": "",
          "type": "bool"
        }
      ],
      "stateMutability": "view",
      "type": "function"
    },
    {
      "inputs": [
        {
          "internalType": "address",
          "name": "_gameContract",
          "type": "address"
        }
      ],
      "name": "isGameContract",
      "outputs": [
        {
          "internalType": "bool",
          "name": "",
          "type": "bool"
        }
      ],
      "stateMutability": "view",
      "type": "function"
    },
    {
      "inputs": [],
      "name": "owner",
      "outputs": [
        {
          "internalType": "address",
          "name": "",
          "type": "address"
        }
      ],
      "stateMutability": "view",
      "type": "function"
    },
    {
      "inputs": [
        {
          "internalType": "address",
          "name": "_playerAddress",
          "type": "address"
        }
      ],
      "name": "playerBalance",
      "outputs": [
        {
          "internalType": "uint256",
          "name": "",
          "type": "uint256"
        }
      ],
      "stateMutability": "view",
      "type": "function"
    },
    {
      "inputs": [],
      "name": "rate",
      "outputs": [
        {
          "internalType": "uint256",
          "name": "",
          "type": "uint256"
        }
      ],
      "stateMutability": "view",
      "type": "function"
    },
    {
      "inputs": [],
      "name": "renounceOwnership",
      "outputs": [],
      "stateMutability": "nonpayable",
      "type": "function"
    },
    {
      "inputs": [
        {
          "internalType": "uint256",
          "name": "_amount",
          "type": "uint256"
        }
      ],
      "name": "sellTokens",
      "outputs": [],
      "stateMutability": "nonpayable",
      "type": "function"
    },
    {
      "inputs": [
        {
          "internalType": "address[]",
          "name": "_admins",
          "type": "address[]"
        }
      ],
      "name": "setAdmins",
      "outputs": [],
      "stateMutability": "nonpayable",
      "type": "function"
    },
    {
      "inputs": [
        {
          "internalType": "uint256",
          "name": "_fee",
          "type": "uint256"
        }
      ],
      "name": "setFeePercentDeposit",
      "outputs": [],
      "stateMutability": "nonpayable",
      "type": "function"
    },
    {
      "inputs": [
        {
          "internalType": "uint256",
          "name": "_fee",
          "type": "uint256"
        }
      ],
      "name": "setFeePercentWithdraw",
      "outputs": [],
      "stateMutability": "nonpayable",
      "type": "function"
    },
    {
      "inputs": [
        {
          "internalType": "address[]",
          "name": "_gameContracts",
          "type": "address[]"
        }
      ],
      "name": "setGameContracts",
      "outputs": [],
      "stateMutability": "nonpayable",
      "type": "function"
    },
    {
      "inputs": [
        {
          "internalType": "address",
          "name": "_playerAddress",
          "type": "address"
        },
        {
          "internalType": "uint256",
          "name": "_amount",
          "type": "uint256"
        }
      ],
      "name": "substractPlayerBalance",
      "outputs": [],
      "stateMutability": "nonpayable",
      "type": "function"
    },
    {
      "inputs": [
        {
          "internalType": "address",
          "name": "newOwner",
          "type": "address"
        }
      ],
      "name": "transferOwnership",
      "outputs": [],
      "stateMutability": "nonpayable",
      "type": "function"
    },
    {
      "inputs": [],
      "name": "withdraw",
      "outputs": [],
      "stateMutability": "nonpayable",
      "type": "function"
    }
  ],
  "bytecode": "0x6080604052620186a0600255602860035560056004553480156200002257600080fd5b506040516200216f3803806200216f833981810160405281019062000048919062000488565b620000686200005c620000f360201b60201c565b620000fb60201b60201c565b600180819055506200008083620001bf60201b60201c565b80600760006101000a81548173ffffffffffffffffffffffffffffffffffffffff021916908373ffffffffffffffffffffffffffffffffffffffff16021790555060066000620000d19190620002fe565b8160069080519060200190620000e992919062000321565b505050506200072e565b600033905090565b60008060009054906101000a900473ffffffffffffffffffffffffffffffffffffffff169050816000806101000a81548173ffffffffffffffffffffffffffffffffffffffff021916908373ffffffffffffffffffffffffffffffffffffffff1602179055508173ffffffffffffffffffffffffffffffffffffffff168173ffffffffffffffffffffffffffffffffffffffff167f8be0079c531659141344cd1fd0a4f28419497f9722a3daafe3b4186f6b6457e060405160405180910390a35050565b620001cf620000f360201b60201c565b73ffffffffffffffffffffffffffffffffffffffff16620001f5620002d560201b60201c565b73ffffffffffffffffffffffffffffffffffffffff16146200024e576040517f08c379a0000000000000000000000000000000000000000000000000000000008152600401620002459062000567565b60405180910390fd5b600073ffffffffffffffffffffffffffffffffffffffff168173ffffffffffffffffffffffffffffffffffffffff161415620002c1576040517f08c379a0000000000000000000000000000000000000000000000000000000008152600401620002b89062000545565b60405180910390fd5b620002d281620000fb60201b60201c565b50565b60008060009054906101000a900473ffffffffffffffffffffffffffffffffffffffff16905090565b50805460008255906000526020600020908101906200031e9190620003b0565b50565b8280548282559060005260206000209081019282156200039d579160200282015b828111156200039c5782518260006101000a81548173ffffffffffffffffffffffffffffffffffffffff021916908373ffffffffffffffffffffffffffffffffffffffff1602179055509160200191906001019062000342565b5b509050620003ac9190620003b0565b5090565b5b80821115620003cb576000816000905550600101620003b1565b5090565b6000620003e6620003e084620005b2565b62000589565b905080838252602082019050828560208602820111156200040657600080fd5b60005b858110156200043a57816200041f888262000444565b84526020840193506020830192505060018101905062000409565b5050509392505050565b600081519050620004558162000714565b92915050565b600082601f8301126200046d57600080fd5b81516200047f848260208601620003cf565b91505092915050565b6000806000606084860312156200049e57600080fd5b6000620004ae8682870162000444565b935050602084015167ffffffffffffffff811115620004cc57600080fd5b620004da868287016200045b565b9250506040620004ed8682870162000444565b9150509250925092565b600062000506602683620005e1565b915062000513826200069c565b604082019050919050565b60006200052d602083620005e1565b91506200053a82620006eb565b602082019050919050565b600060208201905081810360008301526200056081620004f7565b9050919050565b6000602082019050818103600083015262000582816200051e565b9050919050565b600062000595620005a8565b9050620005a3828262000626565b919050565b6000604051905090565b600067ffffffffffffffff821115620005d057620005cf6200065c565b5b602082029050602081019050919050565b600082825260208201905092915050565b6000620005ff8262000606565b9050919050565b600073ffffffffffffffffffffffffffffffffffffffff82169050919050565b62000631826200068b565b810181811067ffffffffffffffff821117156200065357620006526200065c565b5b80604052505050565b7f4e487b7100000000000000000000000000000000000000000000000000000000600052604160045260246000fd5b6000601f19601f8301169050919050565b7f4f776e61626c653a206e6577206f776e657220697320746865207a65726f206160008201527f6464726573730000000000000000000000000000000000000000000000000000602082015250565b7f4f776e61626c653a2063616c6c6572206973206e6f7420746865206f776e6572600082015250565b6200071f81620005f2565b81146200072b57600080fd5b50565b611a31806200073e6000396000f3fe60806040526004361061011f5760003560e01c806377fc53e4116100a0578063accc1d5e11610064578063accc1d5e14610399578063ba067384146103c2578063c04a7d0d146103ed578063d0febe4c1461042a578063f2fde38b146104345761011f565b806377fc53e4146102c657806384021fc3146102f15780638ac810021461031a5780638da5cb5b14610343578063a32c39981461036e5761011f565b80633ccfd60b116100e75780633ccfd60b146102075780634e33f83b1461021e57806369537c791461025b5780636c11bcd314610286578063715018a6146102af5761011f565b80631b67d60114610124578063247265fa1461014d57806324d7806c146101765780632c4e722e146101b35780632f1c0223146101de575b600080fd5b34801561013057600080fd5b5061014b600480360381019061014691906112b7565b61045d565b005b34801561015957600080fd5b50610174600480360381019061016f9190611361565b61055b565b005b34801561018257600080fd5b5061019d6004803603810190610198919061128e565b6105ad565b6040516101aa9190611550565b60405180910390f35b3480156101bf57600080fd5b506101c861067d565b6040516101d5919061164b565b60405180910390f35b3480156101ea57600080fd5b50610205600480360381019061020091906112f3565b610683565b005b34801561021357600080fd5b5061021c6106ef565b005b34801561022a57600080fd5b506102456004803603810190610240919061128e565b610780565b604051610252919061164b565b60405180910390f35b34801561026757600080fd5b50610270610834565b60405161027d919061164b565b60405180910390f35b34801561029257600080fd5b506102ad60048036038101906102a89190611361565b61083a565b005b3480156102bb57600080fd5b506102c4610a08565b005b3480156102d257600080fd5b506102db610a90565b6040516102e8919061164b565b60405180910390f35b3480156102fd57600080fd5b5061031860048036038101906103139190611361565b610a9a565b005b34801561032657600080fd5b50610341600480360381019061033c91906112b7565b610aec565b005b34801561034f57600080fd5b50610358610be8565b60405161036591906114d5565b60405180910390f35b34801561037a57600080fd5b50610383610c11565b604051610390919061164b565b60405180910390f35b3480156103a557600080fd5b506103c060048036038101906103bb91906112f3565b610c17565b005b3480156103ce57600080fd5b506103d7610c83565b6040516103e4919061164b565b60405180910390f35b3480156103f957600080fd5b50610414600480360381019061040f919061128e565b610c8d565b6040516104219190611550565b60405180910390f35b610432610dc3565b005b34801561044057600080fd5b5061045b6004803603810190610456919061128e565b610f4e565b005b61046633610c8d565b6104a5576040517f08c379a000000000000000000000000000000000000000000000000000000000815260040161049c9061158b565b60405180910390fd5b600760009054906101000a900473ffffffffffffffffffffffffffffffffffffffff1673ffffffffffffffffffffffffffffffffffffffff166323b872dd8330846040518463ffffffff1660e01b8152600401610504939291906114f0565b602060405180830381600087803b15801561051e57600080fd5b505af1158015610532573d6000803e3d6000fd5b505050506040513d601f19601f820116820180604052508101906105569190611338565b505050565b610564336105ad565b6105a3576040517f08c379a000000000000000000000000000000000000000000000000000000000815260040161059a906115eb565b60405180910390fd5b8060038190555050565b600080600680549050905060005b81811015610671578373ffffffffffffffffffffffffffffffffffffffff1660068281548110610614577f4e487b7100000000000000000000000000000000000000000000000000000000600052603260045260246000fd5b9060005260206000200160009054906101000a900473ffffffffffffffffffffffffffffffffffffffff1673ffffffffffffffffffffffffffffffffffffffff16141561066657600192505050610678565b8060010190506105bb565b5060009150505b919050565b60025481565b61068c336105ad565b6106cb576040517f08c379a00000000000000000000000000000000000000000000000000000000081526004016106c2906115eb565b60405180910390fd5b600560006106d99190611112565b8181600591906106ea929190611133565b505050565b6106f8336105ad565b610737576040517f08c379a000000000000000000000000000000000000000000000000000000000815260040161072e906115eb565b60405180910390fd5b3373ffffffffffffffffffffffffffffffffffffffff166108fc479081150290604051600060405180830381858888f1935050505015801561077d573d6000803e3d6000fd5b50565b6000600760009054906101000a900473ffffffffffffffffffffffffffffffffffffffff1673ffffffffffffffffffffffffffffffffffffffff166370a08231836040518263ffffffff1660e01b81526004016107dd91906114d5565b60206040518083038186803b1580156107f557600080fd5b505afa158015610809573d6000803e3d6000fd5b505050506040513d601f19601f8201168201806040525081019061082d919061138a565b9050919050565b60045481565b60026001541415610880576040517f08c379a00000000000000000000000000000000000000000000000000000000081526004016108779061162b565b60405180910390fd5b600260018190555060006103e86003546103e861089d9190611702565b600254846108ab9190611677565b6108b591906116a8565b6108bf9190611677565b905080471015610904576040517f08c379a00000000000000000000000000000000000000000000000000000000081526004016108fb906115cb565b60405180910390fd5b3373ffffffffffffffffffffffffffffffffffffffff166108fc829081150290604051600060405180830381858888f1935050505015801561094a573d6000803e3d6000fd5b50600760009054906101000a900473ffffffffffffffffffffffffffffffffffffffff1673ffffffffffffffffffffffffffffffffffffffff166323b872dd3330856040518463ffffffff1660e01b81526004016109aa939291906114f0565b602060405180830381600087803b1580156109c457600080fd5b505af11580156109d8573d6000803e3d6000fd5b505050506040513d601f19601f820116820180604052508101906109fc9190611338565b50506001808190555050565b610a10611046565b73ffffffffffffffffffffffffffffffffffffffff16610a2e610be8565b73ffffffffffffffffffffffffffffffffffffffff1614610a84576040517f08c379a0000000000000000000000000000000000000000000000000000000008152600401610a7b906115ab565b60405180910390fd5b610a8e600061104e565b565b6000600454905090565b610aa3336105ad565b610ae2576040517f08c379a0000000000000000000000000000000000000000000000000000000008152600401610ad9906115eb565b60405180910390fd5b8060048190555050565b610af533610c8d565b610b34576040517f08c379a0000000000000000000000000000000000000000000000000000000008152600401610b2b9061158b565b60405180910390fd5b600760009054906101000a900473ffffffffffffffffffffffffffffffffffffffff1673ffffffffffffffffffffffffffffffffffffffff1663a9059cbb83836040518363ffffffff1660e01b8152600401610b91929190611527565b602060405180830381600087803b158015610bab57600080fd5b505af1158015610bbf573d6000803e3d6000fd5b505050506040513d601f19601f82011682018060405250810190610be39190611338565b505050565b60008060009054906101000a900473ffffffffffffffffffffffffffffffffffffffff16905090565b60035481565b610c20336105ad565b610c5f576040517f08c379a0000000000000000000000000000000000000000000000000000000008152600401610c56906115eb565b60405180910390fd5b60066000610c6d9190611112565b818160069190610c7e929190611133565b505050565b6000600354905090565b6000806005805480602002602001604051908101604052809291908181526020018280548015610d1257602002820191906000526020600020905b8160009054906101000a900473ffffffffffffffffffffffffffffffffffffffff1673ffffffffffffffffffffffffffffffffffffffff1681526020019060010190808311610cc8575b5050505050905060005b8151811015610db7578373ffffffffffffffffffffffffffffffffffffffff16828281518110610d75577f4e487b7100000000000000000000000000000000000000000000000000000000600052603260045260246000fd5b602002602001015173ffffffffffffffffffffffffffffffffffffffff161415610da457600192505050610dbe565b8080610daf9061177e565b915050610d1c565b5060009150505b919050565b60026001541415610e09576040517f08c379a0000000000000000000000000000000000000000000000000000000008152600401610e009061162b565b60405180910390fd5b6002600181905550662386f26fc10000341015610e5b576040517f08c379a0000000000000000000000000000000000000000000000000000000008152600401610e529061160b565b60405180910390fd5b60006103e86004546103e8610e709190611702565b60025434610e7e91906116a8565b610e8891906116a8565b610e929190611677565b9050600760009054906101000a900473ffffffffffffffffffffffffffffffffffffffff1673ffffffffffffffffffffffffffffffffffffffff1663a9059cbb33836040518363ffffffff1660e01b8152600401610ef1929190611527565b602060405180830381600087803b158015610f0b57600080fd5b505af1158015610f1f573d6000803e3d6000fd5b505050506040513d601f19601f82011682018060405250810190610f439190611338565b505060018081905550565b610f56611046565b73ffffffffffffffffffffffffffffffffffffffff16610f74610be8565b73ffffffffffffffffffffffffffffffffffffffff1614610fca576040517f08c379a0000000000000000000000000000000000000000000000000000000008152600401610fc1906115ab565b60405180910390fd5b600073ffffffffffffffffffffffffffffffffffffffff168173ffffffffffffffffffffffffffffffffffffffff16141561103a576040517f08c379a00000000000000000000000000000000000000000000000000000000081526004016110319061156b565b60405180910390fd5b6110438161104e565b50565b600033905090565b60008060009054906101000a900473ffffffffffffffffffffffffffffffffffffffff169050816000806101000a81548173ffffffffffffffffffffffffffffffffffffffff021916908373ffffffffffffffffffffffffffffffffffffffff1602179055508173ffffffffffffffffffffffffffffffffffffffff168173ffffffffffffffffffffffffffffffffffffffff167f8be0079c531659141344cd1fd0a4f28419497f9722a3daafe3b4186f6b6457e060405160405180910390a35050565b508054600082559060005260206000209081019061113091906111d3565b50565b8280548282559060005260206000209081019282156111c2579160200282015b828111156111c157823573ffffffffffffffffffffffffffffffffffffffff168260006101000a81548173ffffffffffffffffffffffffffffffffffffffff021916908373ffffffffffffffffffffffffffffffffffffffff16021790555091602001919060010190611153565b5b5090506111cf91906111d3565b5090565b5b808211156111ec5760008160009055506001016111d4565b5090565b6000813590506111ff816119b6565b92915050565b60008083601f84011261121757600080fd5b8235905067ffffffffffffffff81111561123057600080fd5b60208301915083602082028301111561124857600080fd5b9250929050565b60008151905061125e816119cd565b92915050565b600081359050611273816119e4565b92915050565b600081519050611288816119e4565b92915050565b6000602082840312156112a057600080fd5b60006112ae848285016111f0565b91505092915050565b600080604083850312156112ca57600080fd5b60006112d8858286016111f0565b92505060206112e985828601611264565b9150509250929050565b6000806020838503121561130657600080fd5b600083013567ffffffffffffffff81111561132057600080fd5b61132c85828601611205565b92509250509250929050565b60006020828403121561134a57600080fd5b60006113588482850161124f565b91505092915050565b60006020828403121561137357600080fd5b600061138184828501611264565b91505092915050565b60006020828403121561139c57600080fd5b60006113aa84828501611279565b91505092915050565b6113bc81611736565b82525050565b6113cb81611748565b82525050565b60006113de602683611666565b91506113e982611825565b604082019050919050565b6000611401602d83611666565b915061140c82611874565b604082019050919050565b6000611424602083611666565b915061142f826118c3565b602082019050919050565b6000611447601e83611666565b9150611452826118ec565b602082019050919050565b600061146a601183611666565b915061147582611915565b602082019050919050565b600061148d602183611666565b91506114988261193e565b604082019050919050565b60006114b0601f83611666565b91506114bb8261198d565b602082019050919050565b6114cf81611774565b82525050565b60006020820190506114ea60008301846113b3565b92915050565b600060608201905061150560008301866113b3565b61151260208301856113b3565b61151f60408301846114c6565b949350505050565b600060408201905061153c60008301856113b3565b61154960208301846114c6565b9392505050565b600060208201905061156560008301846113c2565b92915050565b60006020820190508181036000830152611584816113d1565b9050919050565b600060208201905081810360008301526115a4816113f4565b9050919050565b600060208201905081810360008301526115c481611417565b9050919050565b600060208201905081810360008301526115e48161143a565b9050919050565b600060208201905081810360008301526116048161145d565b9050919050565b6000602082019050818103600083015261162481611480565b9050919050565b60006020820190508181036000830152611644816114a3565b9050919050565b600060208201905061166060008301846114c6565b92915050565b600082825260208201905092915050565b600061168282611774565b915061168d83611774565b92508261169d5761169c6117f6565b5b828204905092915050565b60006116b382611774565b91506116be83611774565b9250817fffffffffffffffffffffffffffffffffffffffffffffffffffffffffffffffff04831182151516156116f7576116f66117c7565b5b828202905092915050565b600061170d82611774565b915061171883611774565b92508282101561172b5761172a6117c7565b5b828203905092915050565b600061174182611754565b9050919050565b60008115159050919050565b600073ffffffffffffffffffffffffffffffffffffffff82169050919050565b6000819050919050565b600061178982611774565b91507fffffffffffffffffffffffffffffffffffffffffffffffffffffffffffffffff8214156117bc576117bb6117c7565b5b600182019050919050565b7f4e487b7100000000000000000000000000000000000000000000000000000000600052601160045260246000fd5b7f4e487b7100000000000000000000000000000000000000000000000000000000600052601260045260246000fd5b7f4f776e61626c653a206e6577206f776e657220697320746865207a65726f206160008201527f6464726573730000000000000000000000000000000000000000000000000000602082015250565b7f4f6e6c792067616d6520636f6e7472616374732063616e20616374206f6e207060008201527f6c617965722062616c616e636500000000000000000000000000000000000000602082015250565b7f4f776e61626c653a2063616c6c6572206973206e6f7420746865206f776e6572600082015250565b7f486f75736520686173206e6f7420656e6f756768206c69717569646974790000600082015250565b7f55736572206973206e6f742061646d696e000000000000000000000000000000600082015250565b7f4d696e696d756d20616d6f756e7420746f206465706f73697420697320302e3060008201527f3100000000000000000000000000000000000000000000000000000000000000602082015250565b7f5265656e7472616e637947756172643a207265656e7472616e742063616c6c00600082015250565b6119bf81611736565b81146119ca57600080fd5b50565b6119d681611748565b81146119e157600080fd5b50565b6119ed81611774565b81146119f857600080fd5b5056fea26469706673582212207b6a3c91df12914feab701da60ae08aa9f4e8088a5068e038f53a40f9b33221964736f6c63430008040033",
  "linkReferences": {},
  "deployedLinkReferences": {}
}