{
  "_format": "hh-sol-artifact-1",
  "contractName": "Swap",
  "sourceName": "src/backend/contracts/Swap.sol",
  "abi": [
    {
      "inputs": [
        {
          "internalType": "address",
          "name": "_tokenAddress",
          "type": "address"
        }
      ],
      "stateMutability": "nonpayable",
      "type": "constructor"
    },
    {
      "anonymous": false,
      "inputs": [
        {
          "indexed": true,
          "internalType": "address",
          "name": "previousOwner",
          "type": "address"
        },
        {
          "indexed": true,
          "internalType": "address",
          "name": "newOwner",
          "type": "address"
        }
      ],
      "name": "OwnershipTransferred",
      "type": "event"
    },
    {
      "anonymous": false,
      "inputs": [
        {
          "indexed": false,
          "internalType": "address",
          "name": "account",
          "type": "address"
        },
        {
          "indexed": false,
          "internalType": "address",
          "name": "token",
          "type": "address"
        },
        {
          "indexed": false,
          "internalType": "uint256",
          "name": "amount",
          "type": "uint256"
        },
        {
          "indexed": false,
          "internalType": "uint256",
          "name": "rate",
          "type": "uint256"
        }
      ],
      "name": "TokensPurchased",
      "type": "event"
    },
    {
      "anonymous": false,
      "inputs": [
        {
          "indexed": false,
          "internalType": "address",
          "name": "account",
          "type": "address"
        },
        {
          "indexed": false,
          "internalType": "address",
          "name": "token",
          "type": "address"
        },
        {
          "indexed": false,
          "internalType": "uint256",
          "name": "amount",
          "type": "uint256"
        },
        {
          "indexed": false,
          "internalType": "uint256",
          "name": "rate",
          "type": "uint256"
        }
      ],
      "name": "TokensSold",
      "type": "event"
    },
    {
      "inputs": [],
      "name": "buyTokens",
      "outputs": [],
      "stateMutability": "payable",
      "type": "function"
    },
    {
      "inputs": [],
      "name": "feeAccount",
      "outputs": [
        {
          "internalType": "address payable",
          "name": "",
          "type": "address"
        }
      ],
      "stateMutability": "view",
      "type": "function"
    },
    {
      "inputs": [],
      "name": "feePercent",
      "outputs": [
        {
          "internalType": "uint256",
          "name": "",
          "type": "uint256"
        }
      ],
      "stateMutability": "view",
      "type": "function"
    },
    {
      "inputs": [],
      "name": "name",
      "outputs": [
        {
          "internalType": "string",
          "name": "",
          "type": "string"
        }
      ],
      "stateMutability": "view",
      "type": "function"
    },
    {
      "inputs": [],
      "name": "owner",
      "outputs": [
        {
          "internalType": "address",
          "name": "",
          "type": "address"
        }
      ],
      "stateMutability": "view",
      "type": "function"
    },
    {
      "inputs": [],
      "name": "rate",
      "outputs": [
        {
          "internalType": "uint256",
          "name": "",
          "type": "uint256"
        }
      ],
      "stateMutability": "view",
      "type": "function"
    },
    {
      "inputs": [],
      "name": "renounceOwnership",
      "outputs": [],
      "stateMutability": "nonpayable",
      "type": "function"
    },
    {
      "inputs": [
        {
          "internalType": "uint256",
          "name": "_amount",
          "type": "uint256"
        }
      ],
      "name": "sellTokens",
      "outputs": [],
      "stateMutability": "nonpayable",
      "type": "function"
    },
    {
      "inputs": [],
      "name": "token",
      "outputs": [
        {
          "internalType": "contract Token",
          "name": "",
          "type": "address"
        }
      ],
      "stateMutability": "view",
      "type": "function"
    },
    {
      "inputs": [
        {
          "internalType": "address",
          "name": "newOwner",
          "type": "address"
        }
      ],
      "name": "transferOwnership",
      "outputs": [],
      "stateMutability": "nonpayable",
      "type": "function"
    },
    {
      "inputs": [],
      "name": "withdraw",
      "outputs": [],
      "stateMutability": "nonpayable",
      "type": "function"
    }
  ],
  "bytecode": "0x60c06040526040518060400160405280601781526020017f436173696e6f20496e7374616e742045786368616e6765000000000000000000815250600190805190602001906200005192919062000281565b50606460035560236080908152503480156200006c57600080fd5b50604051620016d0380380620016d0833981810160405281019062000092919062000348565b620000b2620000a6620001b560201b60201c565b620001bd60201b60201c565b80600260006101000a81548173ffffffffffffffffffffffffffffffffffffffff021916908373ffffffffffffffffffffffffffffffffffffffff160217905550600260009054906101000a900473ffffffffffffffffffffffffffffffffffffffff1673ffffffffffffffffffffffffffffffffffffffff16630a249cff6040518163ffffffff1660e01b8152600401600060405180830381600087803b1580156200015e57600080fd5b505af115801562000173573d6000803e3d6000fd5b505050503073ffffffffffffffffffffffffffffffffffffffff1660a08173ffffffffffffffffffffffffffffffffffffffff1660601b815250505062000427565b600033905090565b60008060009054906101000a900473ffffffffffffffffffffffffffffffffffffffff169050816000806101000a81548173ffffffffffffffffffffffffffffffffffffffff021916908373ffffffffffffffffffffffffffffffffffffffff1602179055508173ffffffffffffffffffffffffffffffffffffffff168173ffffffffffffffffffffffffffffffffffffffff167f8be0079c531659141344cd1fd0a4f28419497f9722a3daafe3b4186f6b6457e060405160405180910390a35050565b8280546200028f90620003a8565b90600052602060002090601f016020900481019282620002b35760008555620002ff565b82601f10620002ce57805160ff1916838001178555620002ff565b82800160010185558215620002ff579182015b82811115620002fe578251825591602001919060010190620002e1565b5b5090506200030e919062000312565b5090565b5b808211156200032d57600081600090555060010162000313565b5090565b60008151905062000342816200040d565b92915050565b6000602082840312156200035b57600080fd5b60006200036b8482850162000331565b91505092915050565b6000620003818262000388565b9050919050565b600073ffffffffffffffffffffffffffffffffffffffff82169050919050565b60006002820490506001821680620003c157607f821691505b60208210811415620003d857620003d7620003de565b5b50919050565b7f4e487b7100000000000000000000000000000000000000000000000000000000600052602260045260246000fd5b620004188162000374565b81146200042457600080fd5b50565b60805160a05160601c6112806200045060003960006103880152600061068d01526112806000f3fe60806040526004361061009c5760003560e01c8063715018a611610064578063715018a6146101625780637fd6f15c146101795780638da5cb5b146101a4578063d0febe4c146101cf578063f2fde38b146101d9578063fc0c546a146102025761009c565b806306fdde03146100a15780632c4e722e146100cc5780633ccfd60b146100f757806365e17c9d1461010e5780636c11bcd314610139575b600080fd5b3480156100ad57600080fd5b506100b661022d565b6040516100c39190610de7565b60405180910390f35b3480156100d857600080fd5b506100e16102bb565b6040516100ee9190610ea9565b60405180910390f35b34801561010357600080fd5b5061010c6102c1565b005b34801561011a57600080fd5b50610123610386565b6040516101309190610d0c565b60405180910390f35b34801561014557600080fd5b50610160600480360381019061015b9190610b7b565b6103aa565b005b34801561016e57600080fd5b50610177610603565b005b34801561018557600080fd5b5061018e61068b565b60405161019b9190610ea9565b60405180910390f35b3480156101b057600080fd5b506101b96106af565b6040516101c69190610cf1565b60405180910390f35b6101d76106d8565b005b3480156101e557600080fd5b5061020060048036038101906101fb9190610b29565b6108eb565b005b34801561020e57600080fd5b506102176109e3565b6040516102249190610dcc565b60405180910390f35b6001805461023a9061101c565b80601f01602080910402602001604051908101604052809291908181526020018280546102669061101c565b80156102b35780601f10610288576101008083540402835291602001916102b3565b820191906000526020600020905b81548152906001019060200180831161029657829003601f168201915b505050505081565b60035481565b6102c9610a09565b73ffffffffffffffffffffffffffffffffffffffff166102e76106af565b73ffffffffffffffffffffffffffffffffffffffff161461033d576040517f08c379a000000000000000000000000000000000000000000000000000000000815260040161033490610e69565b60405180910390fd5b3373ffffffffffffffffffffffffffffffffffffffff166108fc479081150290604051600060405180830381858888f19350505050158015610383573d6000803e3d6000fd5b50565b7f000000000000000000000000000000000000000000000000000000000000000081565b80600260009054906101000a900473ffffffffffffffffffffffffffffffffffffffff1673ffffffffffffffffffffffffffffffffffffffff166370a08231336040518263ffffffff1660e01b81526004016104069190610cf1565b60206040518083038186803b15801561041e57600080fd5b505afa158015610432573d6000803e3d6000fd5b505050506040513d601f19601f820116820180604052508101906104569190610ba4565b1015610497576040517f08c379a000000000000000000000000000000000000000000000000000000000815260040161048e90610e89565b60405180910390fd5b6000600354826104a79190610ee0565b9050804710156104ec576040517f08c379a00000000000000000000000000000000000000000000000000000000081526004016104e390610e49565b60405180910390fd5b600260009054906101000a900473ffffffffffffffffffffffffffffffffffffffff1673ffffffffffffffffffffffffffffffffffffffff166323b872dd3330856040518463ffffffff1660e01b815260040161054b93929190610d27565b602060405180830381600087803b15801561056557600080fd5b505af1158015610579573d6000803e3d6000fd5b505050506040513d601f19601f8201168201806040525081019061059d9190610b52565b507f697c42d55a5e1fed3f464ec6f38b32546a0bd368dc8068b065c67566d73f329033600260009054906101000a900473ffffffffffffffffffffffffffffffffffffffff16846003546040516105f79493929190610d5e565b60405180910390a15050565b61060b610a09565b73ffffffffffffffffffffffffffffffffffffffff166106296106af565b73ffffffffffffffffffffffffffffffffffffffff161461067f576040517f08c379a000000000000000000000000000000000000000000000000000000000815260040161067690610e69565b60405180910390fd5b6106896000610a11565b565b7f000000000000000000000000000000000000000000000000000000000000000081565b60008060009054906101000a900473ffffffffffffffffffffffffffffffffffffffff16905090565b6000600354346106e89190610f11565b905080600260009054906101000a900473ffffffffffffffffffffffffffffffffffffffff1673ffffffffffffffffffffffffffffffffffffffff166370a08231306040518263ffffffff1660e01b81526004016107469190610cf1565b60206040518083038186803b15801561075e57600080fd5b505afa158015610772573d6000803e3d6000fd5b505050506040513d601f19601f820116820180604052508101906107969190610ba4565b10156107d7576040517f08c379a00000000000000000000000000000000000000000000000000000000081526004016107ce90610e29565b60405180910390fd5b600260009054906101000a900473ffffffffffffffffffffffffffffffffffffffff1673ffffffffffffffffffffffffffffffffffffffff1663a9059cbb33836040518363ffffffff1660e01b8152600401610834929190610da3565b602060405180830381600087803b15801561084e57600080fd5b505af1158015610862573d6000803e3d6000fd5b505050506040513d601f19601f820116820180604052508101906108869190610b52565b507f6faf93231a456e552dbc9961f58d9713ee4f2e69d15f1975b050ef0911053a7b33600260009054906101000a900473ffffffffffffffffffffffffffffffffffffffff16836003546040516108e09493929190610d5e565b60405180910390a150565b6108f3610a09565b73ffffffffffffffffffffffffffffffffffffffff166109116106af565b73ffffffffffffffffffffffffffffffffffffffff1614610967576040517f08c379a000000000000000000000000000000000000000000000000000000000815260040161095e90610e69565b60405180910390fd5b600073ffffffffffffffffffffffffffffffffffffffff168173ffffffffffffffffffffffffffffffffffffffff1614156109d7576040517f08c379a00000000000000000000000000000000000000000000000000000000081526004016109ce90610e09565b60405180910390fd5b6109e081610a11565b50565b600260009054906101000a900473ffffffffffffffffffffffffffffffffffffffff1681565b600033905090565b60008060009054906101000a900473ffffffffffffffffffffffffffffffffffffffff169050816000806101000a81548173ffffffffffffffffffffffffffffffffffffffff021916908373ffffffffffffffffffffffffffffffffffffffff1602179055508173ffffffffffffffffffffffffffffffffffffffff168173ffffffffffffffffffffffffffffffffffffffff167f8be0079c531659141344cd1fd0a4f28419497f9722a3daafe3b4186f6b6457e060405160405180910390a35050565b600081359050610ae481611205565b92915050565b600081519050610af98161121c565b92915050565b600081359050610b0e81611233565b92915050565b600081519050610b2381611233565b92915050565b600060208284031215610b3b57600080fd5b6000610b4984828501610ad5565b91505092915050565b600060208284031215610b6457600080fd5b6000610b7284828501610aea565b91505092915050565b600060208284031215610b8d57600080fd5b6000610b9b84828501610aff565b91505092915050565b600060208284031215610bb657600080fd5b6000610bc484828501610b14565b91505092915050565b610bd681610f7d565b82525050565b610be581610f6b565b82525050565b610bf481610fc5565b82525050565b6000610c0582610ec4565b610c0f8185610ecf565b9350610c1f818560208601610fe9565b610c28816110db565b840191505092915050565b6000610c40602683610ecf565b9150610c4b826110ec565b604082019050919050565b6000610c63601a83610ecf565b9150610c6e8261113b565b602082019050919050565b6000610c86601d83610ecf565b9150610c9182611164565b602082019050919050565b6000610ca9602083610ecf565b9150610cb48261118d565b602082019050919050565b6000610ccc602983610ecf565b9150610cd7826111b6565b604082019050919050565b610ceb81610fbb565b82525050565b6000602082019050610d066000830184610bdc565b92915050565b6000602082019050610d216000830184610bcd565b92915050565b6000606082019050610d3c6000830186610bdc565b610d496020830185610bdc565b610d566040830184610ce2565b949350505050565b6000608082019050610d736000830187610bdc565b610d806020830186610bdc565b610d8d6040830185610ce2565b610d9a6060830184610ce2565b95945050505050565b6000604082019050610db86000830185610bdc565b610dc56020830184610ce2565b9392505050565b6000602082019050610de16000830184610beb565b92915050565b60006020820190508181036000830152610e018184610bfa565b905092915050565b60006020820190508181036000830152610e2281610c33565b9050919050565b60006020820190508181036000830152610e4281610c56565b9050919050565b60006020820190508181036000830152610e6281610c79565b9050919050565b60006020820190508181036000830152610e8281610c9c565b9050919050565b60006020820190508181036000830152610ea281610cbf565b9050919050565b6000602082019050610ebe6000830184610ce2565b92915050565b600081519050919050565b600082825260208201905092915050565b6000610eeb82610fbb565b9150610ef683610fbb565b925082610f0657610f0561107d565b5b828204905092915050565b6000610f1c82610fbb565b9150610f2783610fbb565b9250817fffffffffffffffffffffffffffffffffffffffffffffffffffffffffffffffff0483118215151615610f6057610f5f61104e565b5b828202905092915050565b6000610f7682610f9b565b9050919050565b6000610f8882610f9b565b9050919050565b60008115159050919050565b600073ffffffffffffffffffffffffffffffffffffffff82169050919050565b6000819050919050565b6000610fd082610fd7565b9050919050565b6000610fe282610f9b565b9050919050565b60005b83811015611007578082015181840152602081019050610fec565b83811115611016576000848401525b50505050565b6000600282049050600182168061103457607f821691505b60208210811415611048576110476110ac565b5b50919050565b7f4e487b7100000000000000000000000000000000000000000000000000000000600052601160045260246000fd5b7f4e487b7100000000000000000000000000000000000000000000000000000000600052601260045260246000fd5b7f4e487b7100000000000000000000000000000000000000000000000000000000600052602260045260246000fd5b6000601f19601f8301169050919050565b7f4f776e61626c653a206e6577206f776e657220697320746865207a65726f206160008201527f6464726573730000000000000000000000000000000000000000000000000000602082015250565b7f5377617020686173206e6f7420656e6f75676820746f6b656e73000000000000600082015250565b7f42616e6b20686173206e6f7420656e6f756768206c6971756964697479000000600082015250565b7f4f776e61626c653a2063616c6c6572206973206e6f7420746865206f776e6572600082015250565b7f557365722063616e742073656c6c206d6f726520746f6b656e73207468616e2060008201527f7468657920686176650000000000000000000000000000000000000000000000602082015250565b61120e81610f6b565b811461121957600080fd5b50565b61122581610f8f565b811461123057600080fd5b50565b61123c81610fbb565b811461124757600080fd5b5056fea2646970667358221220faf4ced2a6db16fff91e8bd4f978b1c63889554fd6c055dbcd854ee735e176ba64736f6c63430008040033",
  "linkReferences": {},
  "deployedLinkReferences": {}
}