{
  "_format": "hh-sol-artifact-1",
  "contractName": "Swap",
  "sourceName": "src/backend/contracts/Swap.sol",
  "abi": [
    {
      "inputs": [
        {
          "internalType": "address",
          "name": "_tokenAddress",
          "type": "address"
        }
      ],
      "stateMutability": "nonpayable",
      "type": "constructor"
    },
    {
      "anonymous": false,
      "inputs": [
        {
          "indexed": true,
          "internalType": "address",
          "name": "previousOwner",
          "type": "address"
        },
        {
          "indexed": true,
          "internalType": "address",
          "name": "newOwner",
          "type": "address"
        }
      ],
      "name": "OwnershipTransferred",
      "type": "event"
    },
    {
      "anonymous": false,
      "inputs": [
        {
          "indexed": false,
          "internalType": "address",
          "name": "account",
          "type": "address"
        },
        {
          "indexed": false,
          "internalType": "address",
          "name": "token",
          "type": "address"
        },
        {
          "indexed": false,
          "internalType": "uint256",
          "name": "amount",
          "type": "uint256"
        },
        {
          "indexed": false,
          "internalType": "uint256",
          "name": "rate",
          "type": "uint256"
        }
      ],
      "name": "TokensPurchased",
      "type": "event"
    },
    {
      "anonymous": false,
      "inputs": [
        {
          "indexed": false,
          "internalType": "address",
          "name": "account",
          "type": "address"
        },
        {
          "indexed": false,
          "internalType": "address",
          "name": "token",
          "type": "address"
        },
        {
          "indexed": false,
          "internalType": "uint256",
          "name": "amount",
          "type": "uint256"
        },
        {
          "indexed": false,
          "internalType": "uint256",
          "name": "rate",
          "type": "uint256"
        }
      ],
      "name": "TokensSold",
      "type": "event"
    },
    {
      "inputs": [],
      "name": "buyTokens",
      "outputs": [],
      "stateMutability": "payable",
      "type": "function"
    },
    {
      "inputs": [],
      "name": "name",
      "outputs": [
        {
          "internalType": "string",
          "name": "",
          "type": "string"
        }
      ],
      "stateMutability": "view",
      "type": "function"
    },
    {
      "inputs": [],
      "name": "owner",
      "outputs": [
        {
          "internalType": "address",
          "name": "",
          "type": "address"
        }
      ],
      "stateMutability": "view",
      "type": "function"
    },
    {
      "inputs": [],
      "name": "rate",
      "outputs": [
        {
          "internalType": "uint256",
          "name": "",
          "type": "uint256"
        }
      ],
      "stateMutability": "view",
      "type": "function"
    },
    {
      "inputs": [],
      "name": "renounceOwnership",
      "outputs": [],
      "stateMutability": "nonpayable",
      "type": "function"
    },
    {
      "inputs": [
        {
          "internalType": "uint256",
          "name": "_amount",
          "type": "uint256"
        }
      ],
      "name": "sellTokens",
      "outputs": [],
      "stateMutability": "nonpayable",
      "type": "function"
    },
    {
      "inputs": [],
      "name": "token",
      "outputs": [
        {
          "internalType": "contract Token",
          "name": "",
          "type": "address"
        }
      ],
      "stateMutability": "view",
      "type": "function"
    },
    {
      "inputs": [
        {
          "internalType": "address",
          "name": "newOwner",
          "type": "address"
        }
      ],
      "name": "transferOwnership",
      "outputs": [],
      "stateMutability": "nonpayable",
      "type": "function"
    },
    {
      "inputs": [],
      "name": "withdraw",
      "outputs": [],
      "stateMutability": "nonpayable",
      "type": "function"
    }
  ],
  "bytecode": "0x60806040526040518060400160405280601781526020017f436173696e6f20496e7374616e742045786368616e6765000000000000000000815250600190805190602001906200005192919062000242565b5060646003553480156200006457600080fd5b50604051620014e6380380620014e683398181016040528101906200008a919062000309565b620000aa6200009e6200017660201b60201c565b6200017e60201b60201c565b80600260006101000a81548173ffffffffffffffffffffffffffffffffffffffff021916908373ffffffffffffffffffffffffffffffffffffffff160217905550600260009054906101000a900473ffffffffffffffffffffffffffffffffffffffff1673ffffffffffffffffffffffffffffffffffffffff16630a249cff6040518163ffffffff1660e01b8152600401600060405180830381600087803b1580156200015657600080fd5b505af11580156200016b573d6000803e3d6000fd5b5050505050620003e8565b600033905090565b60008060009054906101000a900473ffffffffffffffffffffffffffffffffffffffff169050816000806101000a81548173ffffffffffffffffffffffffffffffffffffffff021916908373ffffffffffffffffffffffffffffffffffffffff1602179055508173ffffffffffffffffffffffffffffffffffffffff168173ffffffffffffffffffffffffffffffffffffffff167f8be0079c531659141344cd1fd0a4f28419497f9722a3daafe3b4186f6b6457e060405160405180910390a35050565b828054620002509062000369565b90600052602060002090601f016020900481019282620002745760008555620002c0565b82601f106200028f57805160ff1916838001178555620002c0565b82800160010185558215620002c0579182015b82811115620002bf578251825591602001919060010190620002a2565b5b509050620002cf9190620002d3565b5090565b5b80821115620002ee576000816000905550600101620002d4565b5090565b6000815190506200030381620003ce565b92915050565b6000602082840312156200031c57600080fd5b60006200032c84828501620002f2565b91505092915050565b6000620003428262000349565b9050919050565b600073ffffffffffffffffffffffffffffffffffffffff82169050919050565b600060028204905060018216806200038257607f821691505b602082108114156200039957620003986200039f565b5b50919050565b7f4e487b7100000000000000000000000000000000000000000000000000000000600052602260045260246000fd5b620003d98162000335565b8114620003e557600080fd5b50565b6110ee80620003f86000396000f3fe6080604052600436106100865760003560e01c8063715018a611610059578063715018a6146101215780638da5cb5b14610138578063d0febe4c14610163578063f2fde38b1461016d578063fc0c546a1461019657610086565b806306fdde031461008b5780632c4e722e146100b65780633ccfd60b146100e15780636c11bcd3146100f8575b600080fd5b34801561009757600080fd5b506100a06101c1565b6040516100ad9190610cb0565b60405180910390f35b3480156100c257600080fd5b506100cb61024f565b6040516100d89190610d52565b60405180910390f35b3480156100ed57600080fd5b506100f6610255565b005b34801561010457600080fd5b5061011f600480360381019061011a9190610a91565b61031a565b005b34801561012d57600080fd5b5061013661053d565b005b34801561014457600080fd5b5061014d6105c5565b60405161015a9190610bd5565b60405180910390f35b61016b6105ee565b005b34801561017957600080fd5b50610194600480360381019061018f9190610a3f565b610801565b005b3480156101a257600080fd5b506101ab6108f9565b6040516101b89190610c95565b60405180910390f35b600180546101ce90610eb3565b80601f01602080910402602001604051908101604052809291908181526020018280546101fa90610eb3565b80156102475780601f1061021c57610100808354040283529160200191610247565b820191906000526020600020905b81548152906001019060200180831161022a57829003601f168201915b505050505081565b60035481565b61025d61091f565b73ffffffffffffffffffffffffffffffffffffffff1661027b6105c5565b73ffffffffffffffffffffffffffffffffffffffff16146102d1576040517f08c379a00000000000000000000000000000000000000000000000000000000081526004016102c890610d12565b60405180910390fd5b3373ffffffffffffffffffffffffffffffffffffffff166108fc479081150290604051600060405180830381858888f19350505050158015610317573d6000803e3d6000fd5b50565b80600260009054906101000a900473ffffffffffffffffffffffffffffffffffffffff1673ffffffffffffffffffffffffffffffffffffffff166370a08231336040518263ffffffff1660e01b81526004016103769190610bd5565b60206040518083038186803b15801561038e57600080fd5b505afa1580156103a2573d6000803e3d6000fd5b505050506040513d601f19601f820116820180604052508101906103c69190610aba565b1015610407576040517f08c379a00000000000000000000000000000000000000000000000000000000081526004016103fe90610d32565b60405180910390fd5b6000600354826104179190610d89565b90508047101561042657600080fd5b600260009054906101000a900473ffffffffffffffffffffffffffffffffffffffff1673ffffffffffffffffffffffffffffffffffffffff166323b872dd3330856040518463ffffffff1660e01b815260040161048593929190610bf0565b602060405180830381600087803b15801561049f57600080fd5b505af11580156104b3573d6000803e3d6000fd5b505050506040513d601f19601f820116820180604052508101906104d79190610a68565b507f697c42d55a5e1fed3f464ec6f38b32546a0bd368dc8068b065c67566d73f329033600260009054906101000a900473ffffffffffffffffffffffffffffffffffffffff16846003546040516105319493929190610c27565b60405180910390a15050565b61054561091f565b73ffffffffffffffffffffffffffffffffffffffff166105636105c5565b73ffffffffffffffffffffffffffffffffffffffff16146105b9576040517f08c379a00000000000000000000000000000000000000000000000000000000081526004016105b090610d12565b60405180910390fd5b6105c36000610927565b565b60008060009054906101000a900473ffffffffffffffffffffffffffffffffffffffff16905090565b6000600354346105fe9190610dba565b905080600260009054906101000a900473ffffffffffffffffffffffffffffffffffffffff1673ffffffffffffffffffffffffffffffffffffffff166370a08231306040518263ffffffff1660e01b815260040161065c9190610bd5565b60206040518083038186803b15801561067457600080fd5b505afa158015610688573d6000803e3d6000fd5b505050506040513d601f19601f820116820180604052508101906106ac9190610aba565b10156106ed576040517f08c379a00000000000000000000000000000000000000000000000000000000081526004016106e490610cf2565b60405180910390fd5b600260009054906101000a900473ffffffffffffffffffffffffffffffffffffffff1673ffffffffffffffffffffffffffffffffffffffff1663a9059cbb33836040518363ffffffff1660e01b815260040161074a929190610c6c565b602060405180830381600087803b15801561076457600080fd5b505af1158015610778573d6000803e3d6000fd5b505050506040513d601f19601f8201168201806040525081019061079c9190610a68565b507f6faf93231a456e552dbc9961f58d9713ee4f2e69d15f1975b050ef0911053a7b33600260009054906101000a900473ffffffffffffffffffffffffffffffffffffffff16836003546040516107f69493929190610c27565b60405180910390a150565b61080961091f565b73ffffffffffffffffffffffffffffffffffffffff166108276105c5565b73ffffffffffffffffffffffffffffffffffffffff161461087d576040517f08c379a000000000000000000000000000000000000000000000000000000000815260040161087490610d12565b60405180910390fd5b600073ffffffffffffffffffffffffffffffffffffffff168173ffffffffffffffffffffffffffffffffffffffff1614156108ed576040517f08c379a00000000000000000000000000000000000000000000000000000000081526004016108e490610cd2565b60405180910390fd5b6108f681610927565b50565b600260009054906101000a900473ffffffffffffffffffffffffffffffffffffffff1681565b600033905090565b60008060009054906101000a900473ffffffffffffffffffffffffffffffffffffffff169050816000806101000a81548173ffffffffffffffffffffffffffffffffffffffff021916908373ffffffffffffffffffffffffffffffffffffffff1602179055508173ffffffffffffffffffffffffffffffffffffffff168173ffffffffffffffffffffffffffffffffffffffff167f8be0079c531659141344cd1fd0a4f28419497f9722a3daafe3b4186f6b6457e060405160405180910390a35050565b6000813590506109fa81611073565b92915050565b600081519050610a0f8161108a565b92915050565b600081359050610a24816110a1565b92915050565b600081519050610a39816110a1565b92915050565b600060208284031215610a5157600080fd5b6000610a5f848285016109eb565b91505092915050565b600060208284031215610a7a57600080fd5b6000610a8884828501610a00565b91505092915050565b600060208284031215610aa357600080fd5b6000610ab184828501610a15565b91505092915050565b600060208284031215610acc57600080fd5b6000610ada84828501610a2a565b91505092915050565b610aec81610e14565b82525050565b610afb81610e5c565b82525050565b6000610b0c82610d6d565b610b168185610d78565b9350610b26818560208601610e80565b610b2f81610f72565b840191505092915050565b6000610b47602683610d78565b9150610b5282610f83565b604082019050919050565b6000610b6a601a83610d78565b9150610b7582610fd2565b602082019050919050565b6000610b8d602083610d78565b9150610b9882610ffb565b602082019050919050565b6000610bb0602983610d78565b9150610bbb82611024565b604082019050919050565b610bcf81610e52565b82525050565b6000602082019050610bea6000830184610ae3565b92915050565b6000606082019050610c056000830186610ae3565b610c126020830185610ae3565b610c1f6040830184610bc6565b949350505050565b6000608082019050610c3c6000830187610ae3565b610c496020830186610ae3565b610c566040830185610bc6565b610c636060830184610bc6565b95945050505050565b6000604082019050610c816000830185610ae3565b610c8e6020830184610bc6565b9392505050565b6000602082019050610caa6000830184610af2565b92915050565b60006020820190508181036000830152610cca8184610b01565b905092915050565b60006020820190508181036000830152610ceb81610b3a565b9050919050565b60006020820190508181036000830152610d0b81610b5d565b9050919050565b60006020820190508181036000830152610d2b81610b80565b9050919050565b60006020820190508181036000830152610d4b81610ba3565b9050919050565b6000602082019050610d676000830184610bc6565b92915050565b600081519050919050565b600082825260208201905092915050565b6000610d9482610e52565b9150610d9f83610e52565b925082610daf57610dae610f14565b5b828204905092915050565b6000610dc582610e52565b9150610dd083610e52565b9250817fffffffffffffffffffffffffffffffffffffffffffffffffffffffffffffffff0483118215151615610e0957610e08610ee5565b5b828202905092915050565b6000610e1f82610e32565b9050919050565b60008115159050919050565b600073ffffffffffffffffffffffffffffffffffffffff82169050919050565b6000819050919050565b6000610e6782610e6e565b9050919050565b6000610e7982610e32565b9050919050565b60005b83811015610e9e578082015181840152602081019050610e83565b83811115610ead576000848401525b50505050565b60006002820490506001821680610ecb57607f821691505b60208210811415610edf57610ede610f43565b5b50919050565b7f4e487b7100000000000000000000000000000000000000000000000000000000600052601160045260246000fd5b7f4e487b7100000000000000000000000000000000000000000000000000000000600052601260045260246000fd5b7f4e487b7100000000000000000000000000000000000000000000000000000000600052602260045260246000fd5b6000601f19601f8301169050919050565b7f4f776e61626c653a206e6577206f776e657220697320746865207a65726f206160008201527f6464726573730000000000000000000000000000000000000000000000000000602082015250565b7f5377617020686173206e6f7420656e6f75676820746f6b656e73000000000000600082015250565b7f4f776e61626c653a2063616c6c6572206973206e6f7420746865206f776e6572600082015250565b7f557365722063616e742073656c6c206d6f726520746f6b656e73207468616e2060008201527f7468657920686176650000000000000000000000000000000000000000000000602082015250565b61107c81610e14565b811461108757600080fd5b50565b61109381610e26565b811461109e57600080fd5b50565b6110aa81610e52565b81146110b557600080fd5b5056fea2646970667358221220701168f03b316a8c647ac0cbb6d7eee28f993b3d1ef62db743062ebb2fc1ab4964736f6c63430008040033",
  "linkReferences": {},
  "deployedLinkReferences": {}
}