{
  "_format": "hh-sol-artifact-1",
  "contractName": "Swap",
  "sourceName": "src/backend/contracts/Swap.sol",
  "abi": [
    {
      "inputs": [
        {
          "internalType": "address",
          "name": "_tokenAddress",
          "type": "address"
        }
      ],
      "stateMutability": "nonpayable",
      "type": "constructor"
    },
    {
      "anonymous": false,
      "inputs": [
        {
          "indexed": false,
          "internalType": "address",
          "name": "account",
          "type": "address"
        },
        {
          "indexed": false,
          "internalType": "address",
          "name": "token",
          "type": "address"
        },
        {
          "indexed": false,
          "internalType": "uint256",
          "name": "amount",
          "type": "uint256"
        },
        {
          "indexed": false,
          "internalType": "uint256",
          "name": "rate",
          "type": "uint256"
        }
      ],
      "name": "TokensPurchased",
      "type": "event"
    },
    {
      "anonymous": false,
      "inputs": [
        {
          "indexed": false,
          "internalType": "address",
          "name": "account",
          "type": "address"
        },
        {
          "indexed": false,
          "internalType": "address",
          "name": "token",
          "type": "address"
        },
        {
          "indexed": false,
          "internalType": "uint256",
          "name": "amount",
          "type": "uint256"
        },
        {
          "indexed": false,
          "internalType": "uint256",
          "name": "rate",
          "type": "uint256"
        }
      ],
      "name": "TokensSold",
      "type": "event"
    },
    {
      "inputs": [],
      "name": "buyTokens",
      "outputs": [],
      "stateMutability": "payable",
      "type": "function"
    },
    {
      "inputs": [],
      "name": "name",
      "outputs": [
        {
          "internalType": "string",
          "name": "",
          "type": "string"
        }
      ],
      "stateMutability": "view",
      "type": "function"
    },
    {
      "inputs": [],
      "name": "rate",
      "outputs": [
        {
          "internalType": "uint256",
          "name": "",
          "type": "uint256"
        }
      ],
      "stateMutability": "view",
      "type": "function"
    },
    {
      "inputs": [
        {
          "internalType": "uint256",
          "name": "_amount",
          "type": "uint256"
        }
      ],
      "name": "sellTokens",
      "outputs": [],
      "stateMutability": "nonpayable",
      "type": "function"
    },
    {
      "inputs": [],
      "name": "token",
      "outputs": [
        {
          "internalType": "contract Token",
          "name": "",
          "type": "address"
        }
      ],
      "stateMutability": "view",
      "type": "function"
    }
  ],
  "bytecode": "0x60806040526040518060400160405280601781526020017f436173696e6f20496e7374616e742045786368616e67650000000000000000008152506000908051906020019062000051929190620000d2565b5060646002553480156200006457600080fd5b5060405162000cc138038062000cc183398181016040528101906200008a919062000199565b80600160006101000a81548173ffffffffffffffffffffffffffffffffffffffff021916908373ffffffffffffffffffffffffffffffffffffffff1602179055505062000278565b828054620000e090620001f9565b90600052602060002090601f01602090048101928262000104576000855562000150565b82601f106200011f57805160ff191683800117855562000150565b8280016001018555821562000150579182015b828111156200014f57825182559160200191906001019062000132565b5b5090506200015f919062000163565b5090565b5b808211156200017e57600081600090555060010162000164565b5090565b60008151905062000193816200025e565b92915050565b600060208284031215620001ac57600080fd5b6000620001bc8482850162000182565b91505092915050565b6000620001d282620001d9565b9050919050565b600073ffffffffffffffffffffffffffffffffffffffff82169050919050565b600060028204905060018216806200021257607f821691505b602082108114156200022957620002286200022f565b5b50919050565b7f4e487b7100000000000000000000000000000000000000000000000000000000600052602260045260246000fd5b6200026981620001c5565b81146200027557600080fd5b50565b610a3980620002886000396000f3fe60806040526004361061004a5760003560e01c806306fdde031461004f5780632c4e722e1461007a5780636c11bcd3146100a5578063d0febe4c146100ce578063fc0c546a146100d8575b600080fd5b34801561005b57600080fd5b50610064610103565b6040516100719190610782565b60405180910390f35b34801561008657600080fd5b5061008f610191565b60405161009c91906107a4565b60405180910390f35b3480156100b157600080fd5b506100cc60048036038101906100c791906105ef565b610197565b005b6100d6610384565b005b3480156100e457600080fd5b506100ed610561565b6040516100fa9190610767565b60405180910390f35b6000805461011090610905565b80601f016020809104026020016040519081016040528092919081815260200182805461013c90610905565b80156101895780601f1061015e57610100808354040283529160200191610189565b820191906000526020600020905b81548152906001019060200180831161016c57829003601f168201915b505050505081565b60025481565b80600160009054906101000a900473ffffffffffffffffffffffffffffffffffffffff1673ffffffffffffffffffffffffffffffffffffffff166370a08231336040518263ffffffff1660e01b81526004016101f391906106a7565b60206040518083038186803b15801561020b57600080fd5b505afa15801561021f573d6000803e3d6000fd5b505050506040513d601f19601f820116820180604052508101906102439190610618565b101561024e57600080fd5b60006002548261025e91906107db565b90508047101561026d57600080fd5b600160009054906101000a900473ffffffffffffffffffffffffffffffffffffffff1673ffffffffffffffffffffffffffffffffffffffff166323b872dd3330856040518463ffffffff1660e01b81526004016102cc939291906106c2565b602060405180830381600087803b1580156102e657600080fd5b505af11580156102fa573d6000803e3d6000fd5b505050506040513d601f19601f8201168201806040525081019061031e91906105c6565b507f697c42d55a5e1fed3f464ec6f38b32546a0bd368dc8068b065c67566d73f329033600160009054906101000a900473ffffffffffffffffffffffffffffffffffffffff168460025460405161037894939291906106f9565b60405180910390a15050565b600060025434610394919061080c565b905080600160009054906101000a900473ffffffffffffffffffffffffffffffffffffffff1673ffffffffffffffffffffffffffffffffffffffff166370a08231306040518263ffffffff1660e01b81526004016103f291906106a7565b60206040518083038186803b15801561040a57600080fd5b505afa15801561041e573d6000803e3d6000fd5b505050506040513d601f19601f820116820180604052508101906104429190610618565b101561044d57600080fd5b600160009054906101000a900473ffffffffffffffffffffffffffffffffffffffff1673ffffffffffffffffffffffffffffffffffffffff1663a9059cbb33836040518363ffffffff1660e01b81526004016104aa92919061073e565b602060405180830381600087803b1580156104c457600080fd5b505af11580156104d8573d6000803e3d6000fd5b505050506040513d601f19601f820116820180604052508101906104fc91906105c6565b507f6faf93231a456e552dbc9961f58d9713ee4f2e69d15f1975b050ef0911053a7b33600160009054906101000a900473ffffffffffffffffffffffffffffffffffffffff168360025460405161055694939291906106f9565b60405180910390a150565b600160009054906101000a900473ffffffffffffffffffffffffffffffffffffffff1681565b600081519050610596816109d5565b92915050565b6000813590506105ab816109ec565b92915050565b6000815190506105c0816109ec565b92915050565b6000602082840312156105d857600080fd5b60006105e684828501610587565b91505092915050565b60006020828403121561060157600080fd5b600061060f8482850161059c565b91505092915050565b60006020828403121561062a57600080fd5b6000610638848285016105b1565b91505092915050565b61064a81610866565b82525050565b610659816108ae565b82525050565b600061066a826107bf565b61067481856107ca565b93506106848185602086016108d2565b61068d816109c4565b840191505092915050565b6106a1816108a4565b82525050565b60006020820190506106bc6000830184610641565b92915050565b60006060820190506106d76000830186610641565b6106e46020830185610641565b6106f16040830184610698565b949350505050565b600060808201905061070e6000830187610641565b61071b6020830186610641565b6107286040830185610698565b6107356060830184610698565b95945050505050565b60006040820190506107536000830185610641565b6107606020830184610698565b9392505050565b600060208201905061077c6000830184610650565b92915050565b6000602082019050818103600083015261079c818461065f565b905092915050565b60006020820190506107b96000830184610698565b92915050565b600081519050919050565b600082825260208201905092915050565b60006107e6826108a4565b91506107f1836108a4565b92508261080157610800610966565b5b828204905092915050565b6000610817826108a4565b9150610822836108a4565b9250817fffffffffffffffffffffffffffffffffffffffffffffffffffffffffffffffff048311821515161561085b5761085a610937565b5b828202905092915050565b600061087182610884565b9050919050565b60008115159050919050565b600073ffffffffffffffffffffffffffffffffffffffff82169050919050565b6000819050919050565b60006108b9826108c0565b9050919050565b60006108cb82610884565b9050919050565b60005b838110156108f05780820151818401526020810190506108d5565b838111156108ff576000848401525b50505050565b6000600282049050600182168061091d57607f821691505b6020821081141561093157610930610995565b5b50919050565b7f4e487b7100000000000000000000000000000000000000000000000000000000600052601160045260246000fd5b7f4e487b7100000000000000000000000000000000000000000000000000000000600052601260045260246000fd5b7f4e487b7100000000000000000000000000000000000000000000000000000000600052602260045260246000fd5b6000601f19601f8301169050919050565b6109de81610878565b81146109e957600080fd5b50565b6109f5816108a4565b8114610a0057600080fd5b5056fea26469706673582212205eccfce02617fe0b3b8c83be31229014824c079eba94af0d1758f6838e4715b164736f6c63430008040033",
  "linkReferences": {},
  "deployedLinkReferences": {}
}