{
  "_format": "hh-sol-artifact-1",
  "contractName": "Token",
  "sourceName": "src/backend/contracts/Token.sol",
  "abi": [
    {
      "inputs": [],
      "stateMutability": "nonpayable",
      "type": "constructor"
    },
    {
      "anonymous": false,
      "inputs": [
        {
          "indexed": true,
          "internalType": "address",
          "name": "owner",
          "type": "address"
        },
        {
          "indexed": true,
          "internalType": "address",
          "name": "spender",
          "type": "address"
        },
        {
          "indexed": false,
          "internalType": "uint256",
          "name": "value",
          "type": "uint256"
        }
      ],
      "name": "Approval",
      "type": "event"
    },
    {
      "anonymous": false,
      "inputs": [
        {
          "indexed": true,
          "internalType": "address",
          "name": "from",
          "type": "address"
        },
        {
          "indexed": true,
          "internalType": "address",
          "name": "to",
          "type": "address"
        },
        {
          "indexed": false,
          "internalType": "uint256",
          "name": "value",
          "type": "uint256"
        }
      ],
      "name": "Transfer",
      "type": "event"
    },
    {
      "inputs": [
        {
          "internalType": "address",
          "name": "owner",
          "type": "address"
        },
        {
          "internalType": "address",
          "name": "spender",
          "type": "address"
        }
      ],
      "name": "allowance",
      "outputs": [
        {
          "internalType": "uint256",
          "name": "",
          "type": "uint256"
        }
      ],
      "stateMutability": "view",
      "type": "function"
    },
    {
      "inputs": [
        {
          "internalType": "address",
          "name": "spender",
          "type": "address"
        },
        {
          "internalType": "uint256",
          "name": "amount",
          "type": "uint256"
        }
      ],
      "name": "approve",
      "outputs": [
        {
          "internalType": "bool",
          "name": "",
          "type": "bool"
        }
      ],
      "stateMutability": "nonpayable",
      "type": "function"
    },
    {
      "inputs": [
        {
          "internalType": "address",
          "name": "account",
          "type": "address"
        }
      ],
      "name": "balanceOf",
      "outputs": [
        {
          "internalType": "uint256",
          "name": "",
          "type": "uint256"
        }
      ],
      "stateMutability": "view",
      "type": "function"
    },
    {
      "inputs": [],
      "name": "claimInitialSupply",
      "outputs": [],
      "stateMutability": "nonpayable",
      "type": "function"
    },
    {
      "inputs": [],
      "name": "decimals",
      "outputs": [
        {
          "internalType": "uint8",
          "name": "",
          "type": "uint8"
        }
      ],
      "stateMutability": "view",
      "type": "function"
    },
    {
      "inputs": [
        {
          "internalType": "address",
          "name": "spender",
          "type": "address"
        },
        {
          "internalType": "uint256",
          "name": "subtractedValue",
          "type": "uint256"
        }
      ],
      "name": "decreaseAllowance",
      "outputs": [
        {
          "internalType": "bool",
          "name": "",
          "type": "bool"
        }
      ],
      "stateMutability": "nonpayable",
      "type": "function"
    },
    {
      "inputs": [
        {
          "internalType": "address",
          "name": "spender",
          "type": "address"
        },
        {
          "internalType": "uint256",
          "name": "addedValue",
          "type": "uint256"
        }
      ],
      "name": "increaseAllowance",
      "outputs": [
        {
          "internalType": "bool",
          "name": "",
          "type": "bool"
        }
      ],
      "stateMutability": "nonpayable",
      "type": "function"
    },
    {
      "inputs": [],
      "name": "initialSupplyClaimed",
      "outputs": [
        {
          "internalType": "bool",
          "name": "",
          "type": "bool"
        }
      ],
      "stateMutability": "view",
      "type": "function"
    },
    {
      "inputs": [],
      "name": "name",
      "outputs": [
        {
          "internalType": "string",
          "name": "",
          "type": "string"
        }
      ],
      "stateMutability": "view",
      "type": "function"
    },
    {
      "inputs": [],
      "name": "symbol",
      "outputs": [
        {
          "internalType": "string",
          "name": "",
          "type": "string"
        }
      ],
      "stateMutability": "view",
      "type": "function"
    },
    {
      "inputs": [],
      "name": "totalSupply",
      "outputs": [
        {
          "internalType": "uint256",
          "name": "",
          "type": "uint256"
        }
      ],
      "stateMutability": "view",
      "type": "function"
    },
    {
      "inputs": [
        {
          "internalType": "address",
          "name": "to",
          "type": "address"
        },
        {
          "internalType": "uint256",
          "name": "amount",
          "type": "uint256"
        }
      ],
      "name": "transfer",
      "outputs": [
        {
          "internalType": "bool",
          "name": "",
          "type": "bool"
        }
      ],
      "stateMutability": "nonpayable",
      "type": "function"
    },
    {
      "inputs": [
        {
          "internalType": "address",
          "name": "from",
          "type": "address"
        },
        {
          "internalType": "address",
          "name": "to",
          "type": "address"
        },
        {
          "internalType": "uint256",
          "name": "amount",
          "type": "uint256"
        }
      ],
      "name": "transferFrom",
      "outputs": [
        {
          "internalType": "bool",
          "name": "",
          "type": "bool"
        }
      ],
      "stateMutability": "nonpayable",
      "type": "function"
    }
  ],
  "bytecode": "0x60806040523480156200001157600080fd5b506040518060400160405280600f81526020017f436173696e6f546f6b656e4e616d6500000000000000000000000000000000008152506040518060400160405280600381526020017f43534e0000000000000000000000000000000000000000000000000000000000815250816003908051906020019062000096929190620000b8565b508060049080519060200190620000af929190620000b8565b505050620001cd565b828054620000c69062000168565b90600052602060002090601f016020900481019282620000ea576000855562000136565b82601f106200010557805160ff191683800117855562000136565b8280016001018555821562000136579182015b828111156200013557825182559160200191906001019062000118565b5b50905062000145919062000149565b5090565b5b80821115620001645760008160009055506001016200014a565b5090565b600060028204905060018216806200018157607f821691505b602082108114156200019857620001976200019e565b5b50919050565b7f4e487b7100000000000000000000000000000000000000000000000000000000600052602260045260246000fd5b61187180620001dd6000396000f3fe608060405234801561001057600080fd5b50600436106100ce5760003560e01c8063313ce5671161008c57806395d89b411161006657806395d89b4114610215578063a457c2d714610233578063a9059cbb14610263578063dd62ed3e14610293576100ce565b8063313ce5671461019757806339509351146101b557806370a08231146101e5576100ce565b80620f582b146100d357806306fdde03146100f1578063095ea7b31461010f5780630a249cff1461013f57806318160ddd1461014957806323b872dd14610167575b600080fd5b6100db6102c3565b6040516100e8919061108c565b60405180910390f35b6100f96102d6565b60405161010691906110a7565b60405180910390f35b61012960048036038101906101249190610eaf565b610368565b604051610136919061108c565b60405180910390f35b61014761038b565b005b61015161042d565b60405161015e91906111e9565b60405180910390f35b610181600480360381019061017c9190610e60565b610437565b60405161018e919061108c565b60405180910390f35b61019f610466565b6040516101ac9190611204565b60405180910390f35b6101cf60048036038101906101ca9190610eaf565b61046f565b6040516101dc919061108c565b60405180910390f35b6101ff60048036038101906101fa9190610dfb565b610519565b60405161020c91906111e9565b60405180910390f35b61021d610561565b60405161022a91906110a7565b60405180910390f35b61024d60048036038101906102489190610eaf565b6105f3565b60405161025a919061108c565b60405180910390f35b61027d60048036038101906102789190610eaf565b6106dd565b60405161028a919061108c565b60405180910390f35b6102ad60048036038101906102a89190610e24565b610700565b6040516102ba91906111e9565b60405180910390f35b600560009054906101000a900460ff1681565b6060600380546102e5906114e4565b80601f0160208091040260200160405190810160405280929190818152602001828054610311906114e4565b801561035e5780601f106103335761010080835404028352916020019161035e565b820191906000526020600020905b81548152906001019060200180831161034157829003601f168201915b5050505050905090565b600080610373610787565b905061038081858561078f565b600191505092915050565b60001515600560009054906101000a900460ff161515146103e1576040517f08c379a00000000000000000000000000000000000000000000000000000000081526004016103d890611189565b60405180910390fd5b6001600560006101000a81548160ff02191690831515021790555061042b33610408610466565b60ff16600a61041791906112e4565b630d3b73806104269190611402565b61095a565b565b6000600254905090565b600080610442610787565b905061044f858285610aba565b61045a858585610b46565b60019150509392505050565b60006012905090565b60008061047a610787565b905061050e818585600160008673ffffffffffffffffffffffffffffffffffffffff1673ffffffffffffffffffffffffffffffffffffffff16815260200190815260200160002060008973ffffffffffffffffffffffffffffffffffffffff1673ffffffffffffffffffffffffffffffffffffffff16815260200190815260200160002054610509919061123b565b61078f565b600191505092915050565b60008060008373ffffffffffffffffffffffffffffffffffffffff1673ffffffffffffffffffffffffffffffffffffffff168152602001908152602001600020549050919050565b606060048054610570906114e4565b80601f016020809104026020016040519081016040528092919081815260200182805461059c906114e4565b80156105e95780601f106105be576101008083540402835291602001916105e9565b820191906000526020600020905b8154815290600101906020018083116105cc57829003601f168201915b5050505050905090565b6000806105fe610787565b90506000600160008373ffffffffffffffffffffffffffffffffffffffff1673ffffffffffffffffffffffffffffffffffffffff16815260200190815260200160002060008673ffffffffffffffffffffffffffffffffffffffff1673ffffffffffffffffffffffffffffffffffffffff168152602001908152602001600020549050838110156106c4576040517f08c379a00000000000000000000000000000000000000000000000000000000081526004016106bb906111a9565b60405180910390fd5b6106d1828686840361078f565b60019250505092915050565b6000806106e8610787565b90506106f5818585610b46565b600191505092915050565b6000600160008473ffffffffffffffffffffffffffffffffffffffff1673ffffffffffffffffffffffffffffffffffffffff16815260200190815260200160002060008373ffffffffffffffffffffffffffffffffffffffff1673ffffffffffffffffffffffffffffffffffffffff16815260200190815260200160002054905092915050565b600033905090565b600073ffffffffffffffffffffffffffffffffffffffff168373ffffffffffffffffffffffffffffffffffffffff1614156107ff576040517f08c379a00000000000000000000000000000000000000000000000000000000081526004016107f690611169565b60405180910390fd5b600073ffffffffffffffffffffffffffffffffffffffff168273ffffffffffffffffffffffffffffffffffffffff16141561086f576040517f08c379a0000000000000000000000000000000000000000000000000000000008152600401610866906110e9565b60405180910390fd5b80600160008573ffffffffffffffffffffffffffffffffffffffff1673ffffffffffffffffffffffffffffffffffffffff16815260200190815260200160002060008473ffffffffffffffffffffffffffffffffffffffff1673ffffffffffffffffffffffffffffffffffffffff168152602001908152602001600020819055508173ffffffffffffffffffffffffffffffffffffffff168373ffffffffffffffffffffffffffffffffffffffff167f8c5be1e5ebec7d5bd14f71427d1e84f3dd0314c0f7b2291e5b200ac8c7c3b9258360405161094d91906111e9565b60405180910390a3505050565b600073ffffffffffffffffffffffffffffffffffffffff168273ffffffffffffffffffffffffffffffffffffffff1614156109ca576040517f08c379a00000000000000000000000000000000000000000000000000000000081526004016109c1906111c9565b60405180910390fd5b6109d660008383610dc7565b80600260008282546109e8919061123b565b92505081905550806000808473ffffffffffffffffffffffffffffffffffffffff1673ffffffffffffffffffffffffffffffffffffffff1681526020019081526020016000206000828254610a3d919061123b565b925050819055508173ffffffffffffffffffffffffffffffffffffffff16600073ffffffffffffffffffffffffffffffffffffffff167fddf252ad1be2c89b69c2b068fc378daa952ba7f163c4a11628f55a4df523b3ef83604051610aa291906111e9565b60405180910390a3610ab660008383610dcc565b5050565b6000610ac68484610700565b90507fffffffffffffffffffffffffffffffffffffffffffffffffffffffffffffffff8114610b405781811015610b32576040517f08c379a0000000000000000000000000000000000000000000000000000000008152600401610b2990611109565b60405180910390fd5b610b3f848484840361078f565b5b50505050565b600073ffffffffffffffffffffffffffffffffffffffff168373ffffffffffffffffffffffffffffffffffffffff161415610bb6576040517f08c379a0000000000000000000000000000000000000000000000000000000008152600401610bad90611149565b60405180910390fd5b600073ffffffffffffffffffffffffffffffffffffffff168273ffffffffffffffffffffffffffffffffffffffff161415610c26576040517f08c379a0000000000000000000000000000000000000000000000000000000008152600401610c1d906110c9565b60405180910390fd5b610c31838383610dc7565b60008060008573ffffffffffffffffffffffffffffffffffffffff1673ffffffffffffffffffffffffffffffffffffffff16815260200190815260200160002054905081811015610cb7576040517f08c379a0000000000000000000000000000000000000000000000000000000008152600401610cae90611129565b60405180910390fd5b8181036000808673ffffffffffffffffffffffffffffffffffffffff1673ffffffffffffffffffffffffffffffffffffffff16815260200190815260200160002081905550816000808573ffffffffffffffffffffffffffffffffffffffff1673ffffffffffffffffffffffffffffffffffffffff1681526020019081526020016000206000828254610d4a919061123b565b925050819055508273ffffffffffffffffffffffffffffffffffffffff168473ffffffffffffffffffffffffffffffffffffffff167fddf252ad1be2c89b69c2b068fc378daa952ba7f163c4a11628f55a4df523b3ef84604051610dae91906111e9565b60405180910390a3610dc1848484610dcc565b50505050565b505050565b505050565b600081359050610de08161180d565b92915050565b600081359050610df581611824565b92915050565b600060208284031215610e0d57600080fd5b6000610e1b84828501610dd1565b91505092915050565b60008060408385031215610e3757600080fd5b6000610e4585828601610dd1565b9250506020610e5685828601610dd1565b9150509250929050565b600080600060608486031215610e7557600080fd5b6000610e8386828701610dd1565b9350506020610e9486828701610dd1565b9250506040610ea586828701610de6565b9150509250925092565b60008060408385031215610ec257600080fd5b6000610ed085828601610dd1565b9250506020610ee185828601610de6565b9150509250929050565b610ef48161146e565b82525050565b6000610f058261121f565b610f0f818561122a565b9350610f1f8185602086016114b1565b610f2881611574565b840191505092915050565b6000610f4060238361122a565b9150610f4b82611592565b604082019050919050565b6000610f6360228361122a565b9150610f6e826115e1565b604082019050919050565b6000610f86601d8361122a565b9150610f9182611630565b602082019050919050565b6000610fa960268361122a565b9150610fb482611659565b604082019050919050565b6000610fcc60258361122a565b9150610fd7826116a8565b604082019050919050565b6000610fef60248361122a565b9150610ffa826116f7565b604082019050919050565b600061101260278361122a565b915061101d82611746565b604082019050919050565b600061103560258361122a565b915061104082611795565b604082019050919050565b6000611058601f8361122a565b9150611063826117e4565b602082019050919050565b6110778161149a565b82525050565b611086816114a4565b82525050565b60006020820190506110a16000830184610eeb565b92915050565b600060208201905081810360008301526110c18184610efa565b905092915050565b600060208201905081810360008301526110e281610f33565b9050919050565b6000602082019050818103600083015261110281610f56565b9050919050565b6000602082019050818103600083015261112281610f79565b9050919050565b6000602082019050818103600083015261114281610f9c565b9050919050565b6000602082019050818103600083015261116281610fbf565b9050919050565b6000602082019050818103600083015261118281610fe2565b9050919050565b600060208201905081810360008301526111a281611005565b9050919050565b600060208201905081810360008301526111c281611028565b9050919050565b600060208201905081810360008301526111e28161104b565b9050919050565b60006020820190506111fe600083018461106e565b92915050565b6000602082019050611219600083018461107d565b92915050565b600081519050919050565b600082825260208201905092915050565b60006112468261149a565b91506112518361149a565b9250827fffffffffffffffffffffffffffffffffffffffffffffffffffffffffffffffff0382111561128657611285611516565b5b828201905092915050565b6000808291508390505b60018511156112db578086048111156112b7576112b6611516565b5b60018516156112c65780820291505b80810290506112d485611585565b945061129b565b94509492505050565b60006112ef8261149a565b91506112fa8361149a565b92506113277fffffffffffffffffffffffffffffffffffffffffffffffffffffffffffffffff848461132f565b905092915050565b60008261133f57600190506113fb565b8161134d57600090506113fb565b8160018114611363576002811461136d5761139c565b60019150506113fb565b60ff84111561137f5761137e611516565b5b8360020a91508482111561139657611395611516565b5b506113fb565b5060208310610133831016604e8410600b84101617156113d15782820a9050838111156113cc576113cb611516565b5b6113fb565b6113de8484846001611291565b925090508184048111156113f5576113f4611516565b5b81810290505b9392505050565b600061140d8261149a565b91506114188361149a565b9250817fffffffffffffffffffffffffffffffffffffffffffffffffffffffffffffffff048311821515161561145157611450611516565b5b828202905092915050565b60006114678261147a565b9050919050565b60008115159050919050565b600073ffffffffffffffffffffffffffffffffffffffff82169050919050565b6000819050919050565b600060ff82169050919050565b60005b838110156114cf5780820151818401526020810190506114b4565b838111156114de576000848401525b50505050565b600060028204905060018216806114fc57607f821691505b602082108114156115105761150f611545565b5b50919050565b7f4e487b7100000000000000000000000000000000000000000000000000000000600052601160045260246000fd5b7f4e487b7100000000000000000000000000000000000000000000000000000000600052602260045260246000fd5b6000601f19601f8301169050919050565b60008160011c9050919050565b7f45524332303a207472616e7366657220746f20746865207a65726f206164647260008201527f6573730000000000000000000000000000000000000000000000000000000000602082015250565b7f45524332303a20617070726f766520746f20746865207a65726f20616464726560008201527f7373000000000000000000000000000000000000000000000000000000000000602082015250565b7f45524332303a20696e73756666696369656e7420616c6c6f77616e6365000000600082015250565b7f45524332303a207472616e7366657220616d6f756e742065786365656473206260008201527f616c616e63650000000000000000000000000000000000000000000000000000602082015250565b7f45524332303a207472616e736665722066726f6d20746865207a65726f20616460008201527f6472657373000000000000000000000000000000000000000000000000000000602082015250565b7f45524332303a20617070726f76652066726f6d20746865207a65726f2061646460008201527f7265737300000000000000000000000000000000000000000000000000000000602082015250565b7f496e697469616c20737570706c792068617320616c7265616479206265656e2060008201527f636c61696d656400000000000000000000000000000000000000000000000000602082015250565b7f45524332303a2064656372656173656420616c6c6f77616e63652062656c6f7760008201527f207a65726f000000000000000000000000000000000000000000000000000000602082015250565b7f45524332303a206d696e7420746f20746865207a65726f206164647265737300600082015250565b6118168161145c565b811461182157600080fd5b50565b61182d8161149a565b811461183857600080fd5b5056fea26469706673582212203d4497bf3507c7c030f9f6b40b2a4c91ea34a9b4c0ae4df16e92d5f40521eb5e64736f6c63430008040033",
  "linkReferences": {},
  "deployedLinkReferences": {}
}